{"contracts/Treasury.sol":{"Treasury":{"abi":[{"inputs":[],"stateMutability":"nonpayable","type":"constructor"},{"inputs":[],"name":"AccessControlBadConfirmation","type":"error"},{"inputs":[{"internalType":"address","name":"account","type":"address"},{"internalType":"bytes32","name":"neededRole","type":"bytes32"}],"name":"AccessControlUnauthorizedAccount","type":"error"},{"anonymous":false,"inputs":[{"indexed":false,"internalType":"enum Treasury.FundCategory","name":"category","type":"uint8"},{"indexed":false,"internalType":"uint256","name":"newBudget","type":"uint256"},{"indexed":false,"internalType":"uint256","name":"newTxLimit","type":"uint256"}],"name":"BudgetsUpdated","type":"event"},{"anonymous":false,"inputs":[{"indexed":true,"internalType":"address","name":"sender","type":"address"},{"indexed":false,"internalType":"uint256","name":"amount","type":"uint256"}],"name":"FundsDeposited","type":"event"},{"anonymous":false,"inputs":[{"indexed":true,"internalType":"address","name":"recipient","type":"address"},{"indexed":false,"internalType":"uint256","name":"amount","type":"uint256"},{"indexed":false,"internalType":"enum Treasury.FundCategory","name":"category","type":"uint8"}],"name":"FundsReleased","type":"event"},{"anonymous":false,"inputs":[{"indexed":true,"internalType":"address","name":"recipient","type":"address"},{"indexed":false,"internalType":"uint256","name":"amount","type":"uint256"}],"name":"FundsWithdrawn","type":"event"},{"anonymous":false,"inputs":[{"indexed":true,"internalType":"bytes32","name":"role","type":"bytes32"},{"indexed":true,"internalType":"bytes32","name":"previousAdminRole","type":"bytes32"},{"indexed":true,"internalType":"bytes32","name":"newAdminRole","type":"bytes32"}],"name":"RoleAdminChanged","type":"event"},{"anonymous":false,"inputs":[{"indexed":true,"internalType":"bytes32","name":"role","type":"bytes32"},{"indexed":true,"internalType":"address","name":"account","type":"address"},{"indexed":true,"internalType":"address","name":"sender","type":"address"}],"name":"RoleGranted","type":"event"},{"anonymous":false,"inputs":[{"indexed":true,"internalType":"bytes32","name":"role","type":"bytes32"},{"indexed":true,"internalType":"address","name":"account","type":"address"},{"indexed":true,"internalType":"address","name":"sender","type":"address"}],"name":"RoleRevoked","type":"event"},{"inputs":[],"name":"ADMIN_ROLE","outputs":[{"internalType":"bytes32","name":"","type":"bytes32"}],"stateMutability":"view","type":"function"},{"inputs":[],"name":"DEFAULT_ADMIN_ROLE","outputs":[{"internalType":"bytes32","name":"","type":"bytes32"}],"stateMutability":"view","type":"function"},{"inputs":[],"name":"EXECUTOR_ROLE","outputs":[{"internalType":"bytes32","name":"","type":"bytes32"}],"stateMutability":"view","type":"function"},{"inputs":[],"name":"WITHDRAWER_ROLE","outputs":[{"internalType":"bytes32","name":"","type":"bytes32"}],"stateMutability":"view","type":"function"},{"inputs":[{"internalType":"enum Treasury.FundCategory","name":"","type":"uint8"}],"name":"categoryBudgets","outputs":[{"internalType":"uint256","name":"","type":"uint256"}],"stateMutability":"view","type":"function"},{"inputs":[{"internalType":"enum Treasury.FundCategory","name":"","type":"uint8"}],"name":"categoryTxLimits","outputs":[{"internalType":"uint256","name":"","type":"uint256"}],"stateMutability":"view","type":"function"},{"inputs":[],"name":"deposit","outputs":[],"stateMutability":"payable","type":"function"},{"inputs":[{"internalType":"enum Treasury.FundCategory","name":"category","type":"uint8"}],"name":"getCategoryBalance","outputs":[{"internalType":"uint256","name":"","type":"uint256"}],"stateMutability":"view","type":"function"},{"inputs":[{"internalType":"bytes32","name":"role","type":"bytes32"}],"name":"getRoleAdmin","outputs":[{"internalType":"bytes32","name":"","type":"bytes32"}],"stateMutability":"view","type":"function"},{"inputs":[{"internalType":"bytes32","name":"role","type":"bytes32"},{"internalType":"address","name":"account","type":"address"}],"name":"grantRole","outputs":[],"stateMutability":"nonpayable","type":"function"},{"inputs":[{"internalType":"bytes32","name":"role","type":"bytes32"},{"internalType":"address","name":"account","type":"address"}],"name":"hasRole","outputs":[{"internalType":"bool","name":"","type":"bool"}],"stateMutability":"view","type":"function"},{"inputs":[{"internalType":"address","name":"recipient","type":"address"},{"internalType":"uint256","name":"amount","type":"uint256"},{"internalType":"enum Treasury.FundCategory","name":"category","type":"uint8"}],"name":"releaseFunds","outputs":[],"stateMutability":"nonpayable","type":"function"},{"inputs":[{"internalType":"bytes32","name":"role","type":"bytes32"},{"internalType":"address","name":"callerConfirmation","type":"address"}],"name":"renounceRole","outputs":[],"stateMutability":"nonpayable","type":"function"},{"inputs":[{"internalType":"bytes32","name":"role","type":"bytes32"},{"internalType":"address","name":"account","type":"address"}],"name":"revokeRole","outputs":[],"stateMutability":"nonpayable","type":"function"},{"inputs":[{"internalType":"bytes4","name":"interfaceId","type":"bytes4"}],"name":"supportsInterface","outputs":[{"internalType":"bool","name":"","type":"bool"}],"stateMutability":"view","type":"function"},{"inputs":[{"internalType":"enum Treasury.FundCategory","name":"","type":"uint8"}],"name":"totalSpent","outputs":[{"internalType":"uint256","name":"","type":"uint256"}],"stateMutability":"view","type":"function"},{"inputs":[{"internalType":"enum Treasury.FundCategory","name":"category","type":"uint8"},{"internalType":"uint256","name":"newBudget","type":"uint256"},{"internalType":"uint256","name":"newTxLimit","type":"uint256"}],"name":"updateCategoryConfig","outputs":[],"stateMutability":"nonpayable","type":"function"},{"inputs":[{"internalType":"address","name":"recipient","type":"address"},{"internalType":"uint256","name":"amount","type":"uint256"}],"name":"withdrawTo","outputs":[],"stateMutability":"nonpayable","type":"function"},{"stateMutability":"payable","type":"receive"}],"evm":{"bytecode":{"linkReferences":{},"object":"608060405234801561000f575f80fd5b5061001a5f33610156565b506100457fa49807205ce4d355092ef5a8a18f56e8913cf4a201fbe287825b095693c2177533610156565b50682086ac3510526000007fa6eef7e35abe7026729641147f7915573c7e97b47efa546f5f6e3230263bcb49819055681043561a88293000007fcc69885fda6bcc1a4ace058b4a62bf5e179ea78fd58a1ccd71c22cc9b688792f5568056bc75e2d631000007fd9d16d34ffb15ba3a3d852f0d403e2ce1d691fb54de27ac87cd2f993f3ec330f55600260208190527fac33ff75c19e70fe83507db0d683fd3465c996598dc972688b7ace676c89077b919091556802b5e3af16b18800007fe90b7bceb6e7df5418fb78d8ee546e97c83a08bbccc01a0644d599ccd2a7c2e0555f52674563918244f400007f679795a0195a1b76cdebb7c51d74e058aee92919b8c3389af86ef24535e8a28c556101ff565b5f828152602081815260408083206001600160a01b038516845290915281205460ff166101f6575f838152602081815260408083206001600160a01b03861684529091529020805460ff191660011790556101ae3390565b6001600160a01b0316826001600160a01b0316847f2f8788117e7eff1d82e926ec794901d17c78024a50270940304540a733656f0d60405160405180910390a45060016101f9565b505f5b92915050565b610db98061020c5f395ff3fe608060405260043610610108575f3560e01c806375b238fc1161009257806391d148541161006257806391d148541461036357806394d77ad814610382578063a217fddf146103ad578063d0e30db0146103c0578063d547741f146103c8575f80fd5b806375b238fc146102b357806380ae4011146102e657806382777dc21461030557806385f438c114610330575f80fd5b8063205c2878116100d8578063205c287814610209578063248a9ca3146102285780632a6f93cb146102565780632f2ff15d1461027557806336568abe14610294575f80fd5b806301ffc9a71461014857806307bd02651461017c57806312bcfe99146101bd5780631d6f3f93146101de575f80fd5b366101445760405134815233907f543ba50a5eec5e6178218e364b1d0f396157b3c8fa278522c2cb7fd99407d4749060200160405180910390a2005b5f80fd5b348015610153575f80fd5b50610167610162366004610ba0565b6103e7565b60405190151581526020015b60405180910390f35b348015610187575f80fd5b506101af7fd8aa0f3194971a2a116679f7c2090f6939c8d4e01a2a8d7e41d55e5351469e6381565b604051908152602001610173565b3480156101c8575f80fd5b506101dc6101d7366004610be1565b61041d565b005b3480156101e9575f80fd5b506101af6101f8366004610c11565b60026020525f908152604090205481565b348015610214575f80fd5b506101dc610223366004610c40565b6104f8565b348015610233575f80fd5b506101af610242366004610c68565b5f9081526020819052604090206001015490565b348015610261575f80fd5b506101af610270366004610c11565b6105f3565b348015610280575f80fd5b506101dc61028f366004610c7f565b6106da565b34801561029f575f80fd5b506101dc6102ae366004610c7f565b610704565b3480156102be575f80fd5b506101af7fa49807205ce4d355092ef5a8a18f56e8913cf4a201fbe287825b095693c2177581565b3480156102f1575f80fd5b506101dc610300366004610ca9565b61073c565b348015610310575f80fd5b506101af61031f366004610c11565b60016020525f908152604090205481565b34801561033b575f80fd5b506101af7f10dac8c06a04bec0b551627dad28bc00d6516b0caacd1c7b345fcdb5211334e481565b34801561036e575f80fd5b5061016761037d366004610c7f565b6109db565b34801561038d575f80fd5b506101af61039c366004610c11565b60036020525f908152604090205481565b3480156103b8575f80fd5b506101af5f81565b6101dc610a03565b3480156103d3575f80fd5b506101dc6103e2366004610c7f565b610a3a565b5f6001600160e01b03198216637965db0b60e01b148061041757506301ffc9a760e01b6001600160e01b03198316145b92915050565b7fa49807205ce4d355092ef5a8a18f56e8913cf4a201fbe287825b095693c2177561044781610a5e565b8260015f86600281111561045d5761045d610ce2565b600281111561046e5761046e610ce2565b81526020019081526020015f20819055508160025f86600281111561049557610495610ce2565b60028111156104a6576104a6610ce2565b81526020019081526020015f20819055507f5c069331e3f45f3993de655f8d05753c59c886de8ff32f21cd4c25998014f7c38484846040516104ea93929190610d16565b60405180910390a150505050565b7f10dac8c06a04bec0b551627dad28bc00d6516b0caacd1c7b345fcdb5211334e461052281610a5e565b478211156105775760405162461bcd60e51b815260206004820152601d60248201527f496e73756666696369656e742054726561737572792042616c616e636500000060448201526064015b60405180910390fd5b6040516001600160a01b0384169083156108fc029084905f818181858888f193505050501580156105aa573d5f803e3d5ffd5b50826001600160a01b03167feaff4b37086828766ad3268786972c0cd24259d4c87a80f9d3963a3c3d999b0d836040516105e691815260200190565b60405180910390a2505050565b5f60015f83600281111561060957610609610ce2565b600281111561061a5761061a610ce2565b81526020019081526020015f205460035f84600281111561063d5761063d610ce2565b600281111561064e5761064e610ce2565b81526020019081526020015f20541061066857505f919050565b60035f83600281111561067d5761067d610ce2565b600281111561068e5761068e610ce2565b81526020019081526020015f205460015f8460028111156106b1576106b1610ce2565b60028111156106c2576106c2610ce2565b81526020019081526020015f20546104179190610d49565b5f828152602081905260409020600101546106f481610a5e565b6106fe8383610a6b565b50505050565b6001600160a01b038116331461072d5760405163334bd91960e11b815260040160405180910390fd5b6107378282610afa565b505050565b7fd8aa0f3194971a2a116679f7c2090f6939c8d4e01a2a8d7e41d55e5351469e6361076681610a5e565b478311156107b65760405162461bcd60e51b815260206004820152601d60248201527f496e73756666696369656e742054726561737572792042616c616e6365000000604482015260640161056e565b60025f8360028111156107cb576107cb610ce2565b60028111156107dc576107dc610ce2565b81526020019081526020015f20548311156108545760405162461bcd60e51b815260206004820152603260248201527f416d6f756e742065786365656473207472616e73616374696f6e206c696d697460448201527120666f7220746869732063617465676f727960701b606482015260840161056e565b60015f83600281111561086957610869610ce2565b600281111561087a5761087a610ce2565b81526020019081526020015f20548360035f85600281111561089e5761089e610ce2565b60028111156108af576108af610ce2565b81526020019081526020015f20546108c79190610d5c565b11156109155760405162461bcd60e51b815260206004820152601860248201527f43617465676f7279206275646765742065786365656465640000000000000000604482015260640161056e565b6040516001600160a01b0385169084156108fc029085905f818181858888f19350505050158015610948573d5f803e3d5ffd5b508260035f84600281111561095f5761095f610ce2565b600281111561097057610970610ce2565b81526020019081526020015f205f82825461098b9190610d5c565b92505081905550836001600160a01b03167f5d2f5d506dae29a20dfc21ee5bbcd10c547879d4d1d138d0d1b6219068c926c484846040516109cd929190610d6f565b60405180910390a250505050565b5f918252602082815260408084206001600160a01b0393909316845291905290205460ff1690565b60405134815233907f543ba50a5eec5e6178218e364b1d0f396157b3c8fa278522c2cb7fd99407d4749060200160405180910390a2565b5f82815260208190526040902060010154610a5481610a5e565b6106fe8383610afa565b610a688133610b63565b50565b5f610a7683836109db565b610af3575f838152602081815260408083206001600160a01b03861684529091529020805460ff19166001179055610aab3390565b6001600160a01b0316826001600160a01b0316847f2f8788117e7eff1d82e926ec794901d17c78024a50270940304540a733656f0d60405160405180910390a4506001610417565b505f610417565b5f610b0583836109db565b15610af3575f838152602081815260408083206001600160a01b0386168085529252808320805460ff1916905551339286917ff6391f5c32d9c69d2a47ea670b442974b53935d1edc7fd64eb21e047a839171b9190a4506001610417565b610b6d82826109db565b610b9c5760405163e2517d3f60e01b81526001600160a01b03821660048201526024810183905260440161056e565b5050565b5f60208284031215610bb0575f80fd5b81356001600160e01b031981168114610bc7575f80fd5b9392505050565b803560038110610bdc575f80fd5b919050565b5f805f60608486031215610bf3575f80fd5b610bfc84610bce565b95602085013595506040909401359392505050565b5f60208284031215610c21575f80fd5b610bc782610bce565b80356001600160a01b0381168114610bdc575f80fd5b5f8060408385031215610c51575f80fd5b610c5a83610c2a565b946020939093013593505050565b5f60208284031215610c78575f80fd5b5035919050565b5f8060408385031215610c90575f80fd5b82359150610ca060208401610c2a565b90509250929050565b5f805f60608486031215610cbb575f80fd5b610cc484610c2a565b925060208401359150610cd960408501610bce565b90509250925092565b634e487b7160e01b5f52602160045260245ffd5b60038110610d1257634e487b7160e01b5f52602160045260245ffd5b9052565b60608101610d248286610cf6565b602082019390935260400152919050565b634e487b7160e01b5f52601160045260245ffd5b8181038181111561041757610417610d35565b8082018082111561041757610417610d35565b82815260408101610bc76020830184610cf656fea26469706673582212206e2aeebb551f0f90fd868b08dfca964b5abbdcd49651e58d2d2bdafb3cf8a2e864736f6c63430008180033","opcodes":"PUSH1 0x80 PUSH1 0x40 MSTORE CALLVALUE DUP1 ISZERO PUSH2 0xF JUMPI PUSH0 DUP1 REVERT JUMPDEST POP PUSH2 0x1A PUSH0 CALLER PUSH2 0x156 JUMP JUMPDEST POP PUSH2 0x45 PUSH32 0xA49807205CE4D355092EF5A8A18F56E8913CF4A201FBE287825B095693C21775 CALLER PUSH2 0x156 JUMP JUMPDEST POP PUSH9 0x2086AC351052600000 PUSH32 0xA6EEF7E35ABE7026729641147F7915573C7E97B47EFA546F5F6E3230263BCB49 DUP2 SWAP1 SSTORE PUSH9 0x1043561A8829300000 PUSH32 0xCC69885FDA6BCC1A4ACE058B4A62BF5E179EA78FD58A1CCD71C22CC9B688792F SSTORE PUSH9 0x56BC75E2D63100000 PUSH32 0xD9D16D34FFB15BA3A3D852F0D403E2CE1D691FB54DE27AC87CD2F993F3EC330F SSTORE PUSH1 0x2 PUSH1 0x20 DUP2 SWAP1 MSTORE PUSH32 0xAC33FF75C19E70FE83507DB0D683FD3465C996598DC972688B7ACE676C89077B SWAP2 SWAP1 SWAP2 SSTORE PUSH9 0x2B5E3AF16B1880000 PUSH32 0xE90B7BCEB6E7DF5418FB78D8EE546E97C83A08BBCCC01A0644D599CCD2A7C2E0 SSTORE PUSH0 MSTORE PUSH8 0x4563918244F40000 PUSH32 0x679795A0195A1B76CDEBB7C51D74E058AEE92919B8C3389AF86EF24535E8A28C SSTORE PUSH2 0x1FF JUMP JUMPDEST PUSH0 DUP3 DUP2 MSTORE PUSH1 0x20 DUP2 DUP2 MSTORE PUSH1 0x40 DUP1 DUP4 KECCAK256 PUSH1 0x1 PUSH1 0x1 PUSH1 0xA0 SHL SUB DUP6 AND DUP5 MSTORE SWAP1 SWAP2 MSTORE DUP2 KECCAK256 SLOAD PUSH1 0xFF AND PUSH2 0x1F6 JUMPI PUSH0 DUP4 DUP2 MSTORE PUSH1 0x20 DUP2 DUP2 MSTORE PUSH1 0x40 DUP1 DUP4 KECCAK256 PUSH1 0x1 PUSH1 0x1 PUSH1 0xA0 SHL SUB DUP7 AND DUP5 MSTORE SWAP1 SWAP2 MSTORE SWAP1 KECCAK256 DUP1 SLOAD PUSH1 0xFF NOT AND PUSH1 0x1 OR SWAP1 SSTORE PUSH2 0x1AE CALLER SWAP1 JUMP JUMPDEST PUSH1 0x1 PUSH1 0x1 PUSH1 0xA0 SHL SUB AND DUP3 PUSH1 0x1 PUSH1 0x1 PUSH1 0xA0 SHL SUB AND DUP5 PUSH32 0x2F8788117E7EFF1D82E926EC794901D17C78024A50270940304540A733656F0D PUSH1 0x40 MLOAD PUSH1 0x40 MLOAD DUP1 SWAP2 SUB SWAP1 LOG4 POP PUSH1 0x1 PUSH2 0x1F9 JUMP JUMPDEST POP PUSH0 JUMPDEST SWAP3 SWAP2 POP POP JUMP JUMPDEST PUSH2 0xDB9 DUP1 PUSH2 0x20C PUSH0 CODECOPY PUSH0 RETURN INVALID PUSH1 0x80 PUSH1 0x40 MSTORE PUSH1 0x4 CALLDATASIZE LT PUSH2 0x108 JUMPI PUSH0 CALLDATALOAD PUSH1 0xE0 SHR DUP1 PUSH4 0x75B238FC GT PUSH2 0x92 JUMPI DUP1 PUSH4 0x91D14854 GT PUSH2 0x62 JUMPI DUP1 PUSH4 0x91D14854 EQ PUSH2 0x363 JUMPI DUP1 PUSH4 0x94D77AD8 EQ PUSH2 0x382 JUMPI DUP1 PUSH4 0xA217FDDF EQ PUSH2 0x3AD JUMPI DUP1 PUSH4 0xD0E30DB0 EQ PUSH2 0x3C0 JUMPI DUP1 PUSH4 0xD547741F EQ PUSH2 0x3C8 JUMPI PUSH0 DUP1 REVERT JUMPDEST DUP1 PUSH4 0x75B238FC EQ PUSH2 0x2B3 JUMPI DUP1 PUSH4 0x80AE4011 EQ PUSH2 0x2E6 JUMPI DUP1 PUSH4 0x82777DC2 EQ PUSH2 0x305 JUMPI DUP1 PUSH4 0x85F438C1 EQ PUSH2 0x330 JUMPI PUSH0 DUP1 REVERT JUMPDEST DUP1 PUSH4 0x205C2878 GT PUSH2 0xD8 JUMPI DUP1 PUSH4 0x205C2878 EQ PUSH2 0x209 JUMPI DUP1 PUSH4 0x248A9CA3 EQ PUSH2 0x228 JUMPI DUP1 PUSH4 0x2A6F93CB EQ PUSH2 0x256 JUMPI DUP1 PUSH4 0x2F2FF15D EQ PUSH2 0x275 JUMPI DUP1 PUSH4 0x36568ABE EQ PUSH2 0x294 JUMPI PUSH0 DUP1 REVERT JUMPDEST DUP1 PUSH4 0x1FFC9A7 EQ PUSH2 0x148 JUMPI DUP1 PUSH4 0x7BD0265 EQ PUSH2 0x17C JUMPI DUP1 PUSH4 0x12BCFE99 EQ PUSH2 0x1BD JUMPI DUP1 PUSH4 0x1D6F3F93 EQ PUSH2 0x1DE JUMPI PUSH0 DUP1 REVERT JUMPDEST CALLDATASIZE PUSH2 0x144 JUMPI PUSH1 0x40 MLOAD CALLVALUE DUP2 MSTORE CALLER SWAP1 PUSH32 0x543BA50A5EEC5E6178218E364B1D0F396157B3C8FA278522C2CB7FD99407D474 SWAP1 PUSH1 0x20 ADD PUSH1 0x40 MLOAD DUP1 SWAP2 SUB SWAP1 LOG2 STOP JUMPDEST PUSH0 DUP1 REVERT JUMPDEST CALLVALUE DUP1 ISZERO PUSH2 0x153 JUMPI PUSH0 DUP1 REVERT JUMPDEST POP PUSH2 0x167 PUSH2 0x162 CALLDATASIZE PUSH1 0x4 PUSH2 0xBA0 JUMP JUMPDEST PUSH2 0x3E7 JUMP JUMPDEST PUSH1 0x40 MLOAD SWAP1 ISZERO ISZERO DUP2 MSTORE PUSH1 0x20 ADD JUMPDEST PUSH1 0x40 MLOAD DUP1 SWAP2 SUB SWAP1 RETURN JUMPDEST CALLVALUE DUP1 ISZERO PUSH2 0x187 JUMPI PUSH0 DUP1 REVERT JUMPDEST POP PUSH2 0x1AF PUSH32 0xD8AA0F3194971A2A116679F7C2090F6939C8D4E01A2A8D7E41D55E5351469E63 DUP2 JUMP JUMPDEST PUSH1 0x40 MLOAD SWAP1 DUP2 MSTORE PUSH1 0x20 ADD PUSH2 0x173 JUMP JUMPDEST CALLVALUE DUP1 ISZERO PUSH2 0x1C8 JUMPI PUSH0 DUP1 REVERT JUMPDEST POP PUSH2 0x1DC PUSH2 0x1D7 CALLDATASIZE PUSH1 0x4 PUSH2 0xBE1 JUMP JUMPDEST PUSH2 0x41D JUMP JUMPDEST STOP JUMPDEST CALLVALUE DUP1 ISZERO PUSH2 0x1E9 JUMPI PUSH0 DUP1 REVERT JUMPDEST POP PUSH2 0x1AF PUSH2 0x1F8 CALLDATASIZE PUSH1 0x4 PUSH2 0xC11 JUMP JUMPDEST PUSH1 0x2 PUSH1 0x20 MSTORE PUSH0 SWAP1 DUP2 MSTORE PUSH1 0x40 SWAP1 KECCAK256 SLOAD DUP2 JUMP JUMPDEST CALLVALUE DUP1 ISZERO PUSH2 0x214 JUMPI PUSH0 DUP1 REVERT JUMPDEST POP PUSH2 0x1DC PUSH2 0x223 CALLDATASIZE PUSH1 0x4 PUSH2 0xC40 JUMP JUMPDEST PUSH2 0x4F8 JUMP JUMPDEST CALLVALUE DUP1 ISZERO PUSH2 0x233 JUMPI PUSH0 DUP1 REVERT JUMPDEST POP PUSH2 0x1AF PUSH2 0x242 CALLDATASIZE PUSH1 0x4 PUSH2 0xC68 JUMP JUMPDEST PUSH0 SWAP1 DUP2 MSTORE PUSH1 0x20 DUP2 SWAP1 MSTORE PUSH1 0x40 SWAP1 KECCAK256 PUSH1 0x1 ADD SLOAD SWAP1 JUMP JUMPDEST CALLVALUE DUP1 ISZERO PUSH2 0x261 JUMPI PUSH0 DUP1 REVERT JUMPDEST POP PUSH2 0x1AF PUSH2 0x270 CALLDATASIZE PUSH1 0x4 PUSH2 0xC11 JUMP JUMPDEST PUSH2 0x5F3 JUMP JUMPDEST CALLVALUE DUP1 ISZERO PUSH2 0x280 JUMPI PUSH0 DUP1 REVERT JUMPDEST POP PUSH2 0x1DC PUSH2 0x28F CALLDATASIZE PUSH1 0x4 PUSH2 0xC7F JUMP JUMPDEST PUSH2 0x6DA JUMP JUMPDEST CALLVALUE DUP1 ISZERO PUSH2 0x29F JUMPI PUSH0 DUP1 REVERT JUMPDEST POP PUSH2 0x1DC PUSH2 0x2AE CALLDATASIZE PUSH1 0x4 PUSH2 0xC7F JUMP JUMPDEST PUSH2 0x704 JUMP JUMPDEST CALLVALUE DUP1 ISZERO PUSH2 0x2BE JUMPI PUSH0 DUP1 REVERT JUMPDEST POP PUSH2 0x1AF PUSH32 0xA49807205CE4D355092EF5A8A18F56E8913CF4A201FBE287825B095693C21775 DUP2 JUMP JUMPDEST CALLVALUE DUP1 ISZERO PUSH2 0x2F1 JUMPI PUSH0 DUP1 REVERT JUMPDEST POP PUSH2 0x1DC PUSH2 0x300 CALLDATASIZE PUSH1 0x4 PUSH2 0xCA9 JUMP JUMPDEST PUSH2 0x73C JUMP JUMPDEST CALLVALUE DUP1 ISZERO PUSH2 0x310 JUMPI PUSH0 DUP1 REVERT JUMPDEST POP PUSH2 0x1AF PUSH2 0x31F CALLDATASIZE PUSH1 0x4 PUSH2 0xC11 JUMP JUMPDEST PUSH1 0x1 PUSH1 0x20 MSTORE PUSH0 SWAP1 DUP2 MSTORE PUSH1 0x40 SWAP1 KECCAK256 SLOAD DUP2 JUMP JUMPDEST CALLVALUE DUP1 ISZERO PUSH2 0x33B JUMPI PUSH0 DUP1 REVERT JUMPDEST POP PUSH2 0x1AF PUSH32 0x10DAC8C06A04BEC0B551627DAD28BC00D6516B0CAACD1C7B345FCDB5211334E4 DUP2 JUMP JUMPDEST CALLVALUE DUP1 ISZERO PUSH2 0x36E JUMPI PUSH0 DUP1 REVERT JUMPDEST POP PUSH2 0x167 PUSH2 0x37D CALLDATASIZE PUSH1 0x4 PUSH2 0xC7F JUMP JUMPDEST PUSH2 0x9DB JUMP JUMPDEST CALLVALUE DUP1 ISZERO PUSH2 0x38D JUMPI PUSH0 DUP1 REVERT JUMPDEST POP PUSH2 0x1AF PUSH2 0x39C CALLDATASIZE PUSH1 0x4 PUSH2 0xC11 JUMP JUMPDEST PUSH1 0x3 PUSH1 0x20 MSTORE PUSH0 SWAP1 DUP2 MSTORE PUSH1 0x40 SWAP1 KECCAK256 SLOAD DUP2 JUMP JUMPDEST CALLVALUE DUP1 ISZERO PUSH2 0x3B8 JUMPI PUSH0 DUP1 REVERT JUMPDEST POP PUSH2 0x1AF PUSH0 DUP2 JUMP JUMPDEST PUSH2 0x1DC PUSH2 0xA03 JUMP JUMPDEST CALLVALUE DUP1 ISZERO PUSH2 0x3D3 JUMPI PUSH0 DUP1 REVERT JUMPDEST POP PUSH2 0x1DC PUSH2 0x3E2 CALLDATASIZE PUSH1 0x4 PUSH2 0xC7F JUMP JUMPDEST PUSH2 0xA3A JUMP JUMPDEST PUSH0 PUSH1 0x1 PUSH1 0x1 PUSH1 0xE0 SHL SUB NOT DUP3 AND PUSH4 0x7965DB0B PUSH1 0xE0 SHL EQ DUP1 PUSH2 0x417 JUMPI POP PUSH4 0x1FFC9A7 PUSH1 0xE0 SHL PUSH1 0x1 PUSH1 0x1 PUSH1 0xE0 SHL SUB NOT DUP4 AND EQ JUMPDEST SWAP3 SWAP2 POP POP JUMP JUMPDEST PUSH32 0xA49807205CE4D355092EF5A8A18F56E8913CF4A201FBE287825B095693C21775 PUSH2 0x447 DUP2 PUSH2 0xA5E JUMP JUMPDEST DUP3 PUSH1 0x1 PUSH0 DUP7 PUSH1 0x2 DUP2 GT ISZERO PUSH2 0x45D JUMPI PUSH2 0x45D PUSH2 0xCE2 JUMP JUMPDEST PUSH1 0x2 DUP2 GT ISZERO PUSH2 0x46E JUMPI PUSH2 0x46E PUSH2 0xCE2 JUMP JUMPDEST DUP2 MSTORE PUSH1 0x20 ADD SWAP1 DUP2 MSTORE PUSH1 0x20 ADD PUSH0 KECCAK256 DUP2 SWAP1 SSTORE POP DUP2 PUSH1 0x2 PUSH0 DUP7 PUSH1 0x2 DUP2 GT ISZERO PUSH2 0x495 JUMPI PUSH2 0x495 PUSH2 0xCE2 JUMP JUMPDEST PUSH1 0x2 DUP2 GT ISZERO PUSH2 0x4A6 JUMPI PUSH2 0x4A6 PUSH2 0xCE2 JUMP JUMPDEST DUP2 MSTORE PUSH1 0x20 ADD SWAP1 DUP2 MSTORE PUSH1 0x20 ADD PUSH0 KECCAK256 DUP2 SWAP1 SSTORE POP PUSH32 0x5C069331E3F45F3993DE655F8D05753C59C886DE8FF32F21CD4C25998014F7C3 DUP5 DUP5 DUP5 PUSH1 0x40 MLOAD PUSH2 0x4EA SWAP4 SWAP3 SWAP2 SWAP1 PUSH2 0xD16 JUMP JUMPDEST PUSH1 0x40 MLOAD DUP1 SWAP2 SUB SWAP1 LOG1 POP POP POP POP JUMP JUMPDEST PUSH32 0x10DAC8C06A04BEC0B551627DAD28BC00D6516B0CAACD1C7B345FCDB5211334E4 PUSH2 0x522 DUP2 PUSH2 0xA5E JUMP JUMPDEST SELFBALANCE DUP3 GT ISZERO PUSH2 0x577 JUMPI PUSH1 0x40 MLOAD PUSH3 0x461BCD PUSH1 0xE5 SHL DUP2 MSTORE PUSH1 0x20 PUSH1 0x4 DUP3 ADD MSTORE PUSH1 0x1D PUSH1 0x24 DUP3 ADD MSTORE PUSH32 0x496E73756666696369656E742054726561737572792042616C616E6365000000 PUSH1 0x44 DUP3 ADD MSTORE PUSH1 0x64 ADD JUMPDEST PUSH1 0x40 MLOAD DUP1 SWAP2 SUB SWAP1 REVERT JUMPDEST PUSH1 0x40 MLOAD PUSH1 0x1 PUSH1 0x1 PUSH1 0xA0 SHL SUB DUP5 AND SWAP1 DUP4 ISZERO PUSH2 0x8FC MUL SWAP1 DUP5 SWAP1 PUSH0 DUP2 DUP2 DUP2 DUP6 DUP9 DUP9 CALL SWAP4 POP POP POP POP ISZERO DUP1 ISZERO PUSH2 0x5AA JUMPI RETURNDATASIZE PUSH0 DUP1 RETURNDATACOPY RETURNDATASIZE PUSH0 REVERT JUMPDEST POP DUP3 PUSH1 0x1 PUSH1 0x1 PUSH1 0xA0 SHL SUB AND PUSH32 0xEAFF4B37086828766AD3268786972C0CD24259D4C87A80F9D3963A3C3D999B0D DUP4 PUSH1 0x40 MLOAD PUSH2 0x5E6 SWAP2 DUP2 MSTORE PUSH1 0x20 ADD SWAP1 JUMP JUMPDEST PUSH1 0x40 MLOAD DUP1 SWAP2 SUB SWAP1 LOG2 POP POP POP JUMP JUMPDEST PUSH0 PUSH1 0x1 PUSH0 DUP4 PUSH1 0x2 DUP2 GT ISZERO PUSH2 0x609 JUMPI PUSH2 0x609 PUSH2 0xCE2 JUMP JUMPDEST PUSH1 0x2 DUP2 GT ISZERO PUSH2 0x61A JUMPI PUSH2 0x61A PUSH2 0xCE2 JUMP JUMPDEST DUP2 MSTORE PUSH1 0x20 ADD SWAP1 DUP2 MSTORE PUSH1 0x20 ADD PUSH0 KECCAK256 SLOAD PUSH1 0x3 PUSH0 DUP5 PUSH1 0x2 DUP2 GT ISZERO PUSH2 0x63D JUMPI PUSH2 0x63D PUSH2 0xCE2 JUMP JUMPDEST PUSH1 0x2 DUP2 GT ISZERO PUSH2 0x64E JUMPI PUSH2 0x64E PUSH2 0xCE2 JUMP JUMPDEST DUP2 MSTORE PUSH1 0x20 ADD SWAP1 DUP2 MSTORE PUSH1 0x20 ADD PUSH0 KECCAK256 SLOAD LT PUSH2 0x668 JUMPI POP PUSH0 SWAP2 SWAP1 POP JUMP JUMPDEST PUSH1 0x3 PUSH0 DUP4 PUSH1 0x2 DUP2 GT ISZERO PUSH2 0x67D JUMPI PUSH2 0x67D PUSH2 0xCE2 JUMP JUMPDEST PUSH1 0x2 DUP2 GT ISZERO PUSH2 0x68E JUMPI PUSH2 0x68E PUSH2 0xCE2 JUMP JUMPDEST DUP2 MSTORE PUSH1 0x20 ADD SWAP1 DUP2 MSTORE PUSH1 0x20 ADD PUSH0 KECCAK256 SLOAD PUSH1 0x1 PUSH0 DUP5 PUSH1 0x2 DUP2 GT ISZERO PUSH2 0x6B1 JUMPI PUSH2 0x6B1 PUSH2 0xCE2 JUMP JUMPDEST PUSH1 0x2 DUP2 GT ISZERO PUSH2 0x6C2 JUMPI PUSH2 0x6C2 PUSH2 0xCE2 JUMP JUMPDEST DUP2 MSTORE PUSH1 0x20 ADD SWAP1 DUP2 MSTORE PUSH1 0x20 ADD PUSH0 KECCAK256 SLOAD PUSH2 0x417 SWAP2 SWAP1 PUSH2 0xD49 JUMP JUMPDEST PUSH0 DUP3 DUP2 MSTORE PUSH1 0x20 DUP2 SWAP1 MSTORE PUSH1 0x40 SWAP1 KECCAK256 PUSH1 0x1 ADD SLOAD PUSH2 0x6F4 DUP2 PUSH2 0xA5E JUMP JUMPDEST PUSH2 0x6FE DUP4 DUP4 PUSH2 0xA6B JUMP JUMPDEST POP POP POP POP JUMP JUMPDEST PUSH1 0x1 PUSH1 0x1 PUSH1 0xA0 SHL SUB DUP2 AND CALLER EQ PUSH2 0x72D JUMPI PUSH1 0x40 MLOAD PUSH4 0x334BD919 PUSH1 0xE1 SHL DUP2 MSTORE PUSH1 0x4 ADD PUSH1 0x40 MLOAD DUP1 SWAP2 SUB SWAP1 REVERT JUMPDEST PUSH2 0x737 DUP3 DUP3 PUSH2 0xAFA JUMP JUMPDEST POP POP POP JUMP JUMPDEST PUSH32 0xD8AA0F3194971A2A116679F7C2090F6939C8D4E01A2A8D7E41D55E5351469E63 PUSH2 0x766 DUP2 PUSH2 0xA5E JUMP JUMPDEST SELFBALANCE DUP4 GT ISZERO PUSH2 0x7B6 JUMPI PUSH1 0x40 MLOAD PUSH3 0x461BCD PUSH1 0xE5 SHL DUP2 MSTORE PUSH1 0x20 PUSH1 0x4 DUP3 ADD MSTORE PUSH1 0x1D PUSH1 0x24 DUP3 ADD MSTORE PUSH32 0x496E73756666696369656E742054726561737572792042616C616E6365000000 PUSH1 0x44 DUP3 ADD MSTORE PUSH1 0x64 ADD PUSH2 0x56E JUMP JUMPDEST PUSH1 0x2 PUSH0 DUP4 PUSH1 0x2 DUP2 GT ISZERO PUSH2 0x7CB JUMPI PUSH2 0x7CB PUSH2 0xCE2 JUMP JUMPDEST PUSH1 0x2 DUP2 GT ISZERO PUSH2 0x7DC JUMPI PUSH2 0x7DC PUSH2 0xCE2 JUMP JUMPDEST DUP2 MSTORE PUSH1 0x20 ADD SWAP1 DUP2 MSTORE PUSH1 0x20 ADD PUSH0 KECCAK256 SLOAD DUP4 GT ISZERO PUSH2 0x854 JUMPI PUSH1 0x40 MLOAD PUSH3 0x461BCD PUSH1 0xE5 SHL DUP2 MSTORE PUSH1 0x20 PUSH1 0x4 DUP3 ADD MSTORE PUSH1 0x32 PUSH1 0x24 DUP3 ADD MSTORE PUSH32 0x416D6F756E742065786365656473207472616E73616374696F6E206C696D6974 PUSH1 0x44 DUP3 ADD MSTORE PUSH18 0x20666F7220746869732063617465676F7279 PUSH1 0x70 SHL PUSH1 0x64 DUP3 ADD MSTORE PUSH1 0x84 ADD PUSH2 0x56E JUMP JUMPDEST PUSH1 0x1 PUSH0 DUP4 PUSH1 0x2 DUP2 GT ISZERO PUSH2 0x869 JUMPI PUSH2 0x869 PUSH2 0xCE2 JUMP JUMPDEST PUSH1 0x2 DUP2 GT ISZERO PUSH2 0x87A JUMPI PUSH2 0x87A PUSH2 0xCE2 JUMP JUMPDEST DUP2 MSTORE PUSH1 0x20 ADD SWAP1 DUP2 MSTORE PUSH1 0x20 ADD PUSH0 KECCAK256 SLOAD DUP4 PUSH1 0x3 PUSH0 DUP6 PUSH1 0x2 DUP2 GT ISZERO PUSH2 0x89E JUMPI PUSH2 0x89E PUSH2 0xCE2 JUMP JUMPDEST PUSH1 0x2 DUP2 GT ISZERO PUSH2 0x8AF JUMPI PUSH2 0x8AF PUSH2 0xCE2 JUMP JUMPDEST DUP2 MSTORE PUSH1 0x20 ADD SWAP1 DUP2 MSTORE PUSH1 0x20 ADD PUSH0 KECCAK256 SLOAD PUSH2 0x8C7 SWAP2 SWAP1 PUSH2 0xD5C JUMP JUMPDEST GT ISZERO PUSH2 0x915 JUMPI PUSH1 0x40 MLOAD PUSH3 0x461BCD PUSH1 0xE5 SHL DUP2 MSTORE PUSH1 0x20 PUSH1 0x4 DUP3 ADD MSTORE PUSH1 0x18 PUSH1 0x24 DUP3 ADD MSTORE PUSH32 0x43617465676F7279206275646765742065786365656465640000000000000000 PUSH1 0x44 DUP3 ADD MSTORE PUSH1 0x64 ADD PUSH2 0x56E JUMP JUMPDEST PUSH1 0x40 MLOAD PUSH1 0x1 PUSH1 0x1 PUSH1 0xA0 SHL SUB DUP6 AND SWAP1 DUP5 ISZERO PUSH2 0x8FC MUL SWAP1 DUP6 SWAP1 PUSH0 DUP2 DUP2 DUP2 DUP6 DUP9 DUP9 CALL SWAP4 POP POP POP POP ISZERO DUP1 ISZERO PUSH2 0x948 JUMPI RETURNDATASIZE PUSH0 DUP1 RETURNDATACOPY RETURNDATASIZE PUSH0 REVERT JUMPDEST POP DUP3 PUSH1 0x3 PUSH0 DUP5 PUSH1 0x2 DUP2 GT ISZERO PUSH2 0x95F JUMPI PUSH2 0x95F PUSH2 0xCE2 JUMP JUMPDEST PUSH1 0x2 DUP2 GT ISZERO PUSH2 0x970 JUMPI PUSH2 0x970 PUSH2 0xCE2 JUMP JUMPDEST DUP2 MSTORE PUSH1 0x20 ADD SWAP1 DUP2 MSTORE PUSH1 0x20 ADD PUSH0 KECCAK256 PUSH0 DUP3 DUP3 SLOAD PUSH2 0x98B SWAP2 SWAP1 PUSH2 0xD5C JUMP JUMPDEST SWAP3 POP POP DUP2 SWAP1 SSTORE POP DUP4 PUSH1 0x1 PUSH1 0x1 PUSH1 0xA0 SHL SUB AND PUSH32 0x5D2F5D506DAE29A20DFC21EE5BBCD10C547879D4D1D138D0D1B6219068C926C4 DUP5 DUP5 PUSH1 0x40 MLOAD PUSH2 0x9CD SWAP3 SWAP2 SWAP1 PUSH2 0xD6F JUMP JUMPDEST PUSH1 0x40 MLOAD DUP1 SWAP2 SUB SWAP1 LOG2 POP POP POP POP JUMP JUMPDEST PUSH0 SWAP2 DUP3 MSTORE PUSH1 0x20 DUP3 DUP2 MSTORE PUSH1 0x40 DUP1 DUP5 KECCAK256 PUSH1 0x1 PUSH1 0x1 PUSH1 0xA0 SHL SUB SWAP4 SWAP1 SWAP4 AND DUP5 MSTORE SWAP2 SWAP1 MSTORE SWAP1 KECCAK256 SLOAD PUSH1 0xFF AND SWAP1 JUMP JUMPDEST PUSH1 0x40 MLOAD CALLVALUE DUP2 MSTORE CALLER SWAP1 PUSH32 0x543BA50A5EEC5E6178218E364B1D0F396157B3C8FA278522C2CB7FD99407D474 SWAP1 PUSH1 0x20 ADD PUSH1 0x40 MLOAD DUP1 SWAP2 SUB SWAP1 LOG2 JUMP JUMPDEST PUSH0 DUP3 DUP2 MSTORE PUSH1 0x20 DUP2 SWAP1 MSTORE PUSH1 0x40 SWAP1 KECCAK256 PUSH1 0x1 ADD SLOAD PUSH2 0xA54 DUP2 PUSH2 0xA5E JUMP JUMPDEST PUSH2 0x6FE DUP4 DUP4 PUSH2 0xAFA JUMP JUMPDEST PUSH2 0xA68 DUP2 CALLER PUSH2 0xB63 JUMP JUMPDEST POP JUMP JUMPDEST PUSH0 PUSH2 0xA76 DUP4 DUP4 PUSH2 0x9DB JUMP JUMPDEST PUSH2 0xAF3 JUMPI PUSH0 DUP4 DUP2 MSTORE PUSH1 0x20 DUP2 DUP2 MSTORE PUSH1 0x40 DUP1 DUP4 KECCAK256 PUSH1 0x1 PUSH1 0x1 PUSH1 0xA0 SHL SUB DUP7 AND DUP5 MSTORE SWAP1 SWAP2 MSTORE SWAP1 KECCAK256 DUP1 SLOAD PUSH1 0xFF NOT AND PUSH1 0x1 OR SWAP1 SSTORE PUSH2 0xAAB CALLER SWAP1 JUMP JUMPDEST PUSH1 0x1 PUSH1 0x1 PUSH1 0xA0 SHL SUB AND DUP3 PUSH1 0x1 PUSH1 0x1 PUSH1 0xA0 SHL SUB AND DUP5 PUSH32 0x2F8788117E7EFF1D82E926EC794901D17C78024A50270940304540A733656F0D PUSH1 0x40 MLOAD PUSH1 0x40 MLOAD DUP1 SWAP2 SUB SWAP1 LOG4 POP PUSH1 0x1 PUSH2 0x417 JUMP JUMPDEST POP PUSH0 PUSH2 0x417 JUMP JUMPDEST PUSH0 PUSH2 0xB05 DUP4 DUP4 PUSH2 0x9DB JUMP JUMPDEST ISZERO PUSH2 0xAF3 JUMPI PUSH0 DUP4 DUP2 MSTORE PUSH1 0x20 DUP2 DUP2 MSTORE PUSH1 0x40 DUP1 DUP4 KECCAK256 PUSH1 0x1 PUSH1 0x1 PUSH1 0xA0 SHL SUB DUP7 AND DUP1 DUP6 MSTORE SWAP3 MSTORE DUP1 DUP4 KECCAK256 DUP1 SLOAD PUSH1 0xFF NOT AND SWAP1 SSTORE MLOAD CALLER SWAP3 DUP7 SWAP2 PUSH32 0xF6391F5C32D9C69D2A47EA670B442974B53935D1EDC7FD64EB21E047A839171B SWAP2 SWAP1 LOG4 POP PUSH1 0x1 PUSH2 0x417 JUMP JUMPDEST PUSH2 0xB6D DUP3 DUP3 PUSH2 0x9DB JUMP JUMPDEST PUSH2 0xB9C JUMPI PUSH1 0x40 MLOAD PUSH4 0xE2517D3F PUSH1 0xE0 SHL DUP2 MSTORE PUSH1 0x1 PUSH1 0x1 PUSH1 0xA0 SHL SUB DUP3 AND PUSH1 0x4 DUP3 ADD MSTORE PUSH1 0x24 DUP2 ADD DUP4 SWAP1 MSTORE PUSH1 0x44 ADD PUSH2 0x56E JUMP JUMPDEST POP POP JUMP JUMPDEST PUSH0 PUSH1 0x20 DUP3 DUP5 SUB SLT ISZERO PUSH2 0xBB0 JUMPI PUSH0 DUP1 REVERT JUMPDEST DUP2 CALLDATALOAD PUSH1 0x1 PUSH1 0x1 PUSH1 0xE0 SHL SUB NOT DUP2 AND DUP2 EQ PUSH2 0xBC7 JUMPI PUSH0 DUP1 REVERT JUMPDEST SWAP4 SWAP3 POP POP POP JUMP JUMPDEST DUP1 CALLDATALOAD PUSH1 0x3 DUP2 LT PUSH2 0xBDC JUMPI PUSH0 DUP1 REVERT JUMPDEST SWAP2 SWAP1 POP JUMP JUMPDEST PUSH0 DUP1 PUSH0 PUSH1 0x60 DUP5 DUP7 SUB SLT ISZERO PUSH2 0xBF3 JUMPI PUSH0 DUP1 REVERT JUMPDEST PUSH2 0xBFC DUP5 PUSH2 0xBCE JUMP JUMPDEST SWAP6 PUSH1 0x20 DUP6 ADD CALLDATALOAD SWAP6 POP PUSH1 0x40 SWAP1 SWAP5 ADD CALLDATALOAD SWAP4 SWAP3 POP POP POP JUMP JUMPDEST PUSH0 PUSH1 0x20 DUP3 DUP5 SUB SLT ISZERO PUSH2 0xC21 JUMPI PUSH0 DUP1 REVERT JUMPDEST PUSH2 0xBC7 DUP3 PUSH2 0xBCE JUMP JUMPDEST DUP1 CALLDATALOAD PUSH1 0x1 PUSH1 0x1 PUSH1 0xA0 SHL SUB DUP2 AND DUP2 EQ PUSH2 0xBDC JUMPI PUSH0 DUP1 REVERT JUMPDEST PUSH0 DUP1 PUSH1 0x40 DUP4 DUP6 SUB SLT ISZERO PUSH2 0xC51 JUMPI PUSH0 DUP1 REVERT JUMPDEST PUSH2 0xC5A DUP4 PUSH2 0xC2A JUMP JUMPDEST SWAP5 PUSH1 0x20 SWAP4 SWAP1 SWAP4 ADD CALLDATALOAD SWAP4 POP POP POP JUMP JUMPDEST PUSH0 PUSH1 0x20 DUP3 DUP5 SUB SLT ISZERO PUSH2 0xC78 JUMPI PUSH0 DUP1 REVERT JUMPDEST POP CALLDATALOAD SWAP2 SWAP1 POP JUMP JUMPDEST PUSH0 DUP1 PUSH1 0x40 DUP4 DUP6 SUB SLT ISZERO PUSH2 0xC90 JUMPI PUSH0 DUP1 REVERT JUMPDEST DUP3 CALLDATALOAD SWAP2 POP PUSH2 0xCA0 PUSH1 0x20 DUP5 ADD PUSH2 0xC2A JUMP JUMPDEST SWAP1 POP SWAP3 POP SWAP3 SWAP1 POP JUMP JUMPDEST PUSH0 DUP1 PUSH0 PUSH1 0x60 DUP5 DUP7 SUB SLT ISZERO PUSH2 0xCBB JUMPI PUSH0 DUP1 REVERT JUMPDEST PUSH2 0xCC4 DUP5 PUSH2 0xC2A JUMP JUMPDEST SWAP3 POP PUSH1 0x20 DUP5 ADD CALLDATALOAD SWAP2 POP PUSH2 0xCD9 PUSH1 0x40 DUP6 ADD PUSH2 0xBCE JUMP JUMPDEST SWAP1 POP SWAP3 POP SWAP3 POP SWAP3 JUMP JUMPDEST PUSH4 0x4E487B71 PUSH1 0xE0 SHL PUSH0 MSTORE PUSH1 0x21 PUSH1 0x4 MSTORE PUSH1 0x24 PUSH0 REVERT JUMPDEST PUSH1 0x3 DUP2 LT PUSH2 0xD12 JUMPI PUSH4 0x4E487B71 PUSH1 0xE0 SHL PUSH0 MSTORE PUSH1 0x21 PUSH1 0x4 MSTORE PUSH1 0x24 PUSH0 REVERT JUMPDEST SWAP1 MSTORE JUMP JUMPDEST PUSH1 0x60 DUP2 ADD PUSH2 0xD24 DUP3 DUP7 PUSH2 0xCF6 JUMP JUMPDEST PUSH1 0x20 DUP3 ADD SWAP4 SWAP1 SWAP4 MSTORE PUSH1 0x40 ADD MSTORE SWAP2 SWAP1 POP JUMP JUMPDEST PUSH4 0x4E487B71 PUSH1 0xE0 SHL PUSH0 MSTORE PUSH1 0x11 PUSH1 0x4 MSTORE PUSH1 0x24 PUSH0 REVERT JUMPDEST DUP2 DUP2 SUB DUP2 DUP2 GT ISZERO PUSH2 0x417 JUMPI PUSH2 0x417 PUSH2 0xD35 JUMP JUMPDEST DUP1 DUP3 ADD DUP1 DUP3 GT ISZERO PUSH2 0x417 JUMPI PUSH2 0x417 PUSH2 0xD35 JUMP JUMPDEST DUP3 DUP2 MSTORE PUSH1 0x40 DUP2 ADD PUSH2 0xBC7 PUSH1 0x20 DUP4 ADD DUP5 PUSH2 0xCF6 JUMP INVALID LOG2 PUSH5 0x6970667358 0x22 SLT KECCAK256 PUSH15 0x2AEEBB551F0F90FD868B08DFCA964B GAS 0xBB 0xDC 0xD4 SWAP7 MLOAD 0xE5 DUP14 0x2D 0x2B 0xDA 0xFB EXTCODECOPY 0xF8 LOG2 0xE8 PUSH5 0x736F6C6343 STOP ADDMOD XOR STOP CALLER "},"methodIdentifiers":{"ADMIN_ROLE()":"75b238fc","DEFAULT_ADMIN_ROLE()":"a217fddf","EXECUTOR_ROLE()":"07bd0265","WITHDRAWER_ROLE()":"85f438c1","categoryBudgets(uint8)":"82777dc2","categoryTxLimits(uint8)":"1d6f3f93","deposit()":"d0e30db0","getCategoryBalance(uint8)":"2a6f93cb","getRoleAdmin(bytes32)":"248a9ca3","grantRole(bytes32,address)":"2f2ff15d","hasRole(bytes32,address)":"91d14854","releaseFunds(address,uint256,uint8)":"80ae4011","renounceRole(bytes32,address)":"36568abe","revokeRole(bytes32,address)":"d547741f","supportsInterface(bytes4)":"01ffc9a7","totalSpent(uint8)":"94d77ad8","updateCategoryConfig(uint8,uint256,uint256)":"12bcfe99","withdrawTo(address,uint256)":"205c2878"}}}}}