{
  "_format": "hh-sol-artifact-1",
  "contractName": "CryptoVenturesGovernance",
  "sourceName": "contracts/CryptoVenturesGovernance.sol",
  "abi": [
    {
      "inputs": [
        {
          "internalType": "contract IVotes",
          "name": "_token",
          "type": "address"
        },
        {
          "internalType": "contract TimelockController",
          "name": "timelockAddress",
          "type": "address"
        }
      ],
      "stateMutability": "nonpayable",
      "type": "constructor"
    },
    {
      "inputs": [],
      "name": "CheckpointUnorderedInsertion",
      "type": "error"
    },
    {
      "inputs": [],
      "name": "FailedCall",
      "type": "error"
    },
    {
      "inputs": [
        {
          "internalType": "address",
          "name": "voter",
          "type": "address"
        }
      ],
      "name": "GovernorAlreadyCastVote",
      "type": "error"
    },
    {
      "inputs": [
        {
          "internalType": "uint256",
          "name": "proposalId",
          "type": "uint256"
        }
      ],
      "name": "GovernorAlreadyQueuedProposal",
      "type": "error"
    },
    {
      "inputs": [],
      "name": "GovernorDisabledDeposit",
      "type": "error"
    },
    {
      "inputs": [
        {
          "internalType": "address",
          "name": "proposer",
          "type": "address"
        },
        {
          "internalType": "uint256",
          "name": "votes",
          "type": "uint256"
        },
        {
          "internalType": "uint256",
          "name": "threshold",
          "type": "uint256"
        }
      ],
      "name": "GovernorInsufficientProposerVotes",
      "type": "error"
    },
    {
      "inputs": [
        {
          "internalType": "uint256",
          "name": "targets",
          "type": "uint256"
        },
        {
          "internalType": "uint256",
          "name": "calldatas",
          "type": "uint256"
        },
        {
          "internalType": "uint256",
          "name": "values",
          "type": "uint256"
        }
      ],
      "name": "GovernorInvalidProposalLength",
      "type": "error"
    },
    {
      "inputs": [
        {
          "internalType": "uint256",
          "name": "quorumNumerator",
          "type": "uint256"
        },
        {
          "internalType": "uint256",
          "name": "quorumDenominator",
          "type": "uint256"
        }
      ],
      "name": "GovernorInvalidQuorumFraction",
      "type": "error"
    },
    {
      "inputs": [
        {
          "internalType": "address",
          "name": "voter",
          "type": "address"
        }
      ],
      "name": "GovernorInvalidSignature",
      "type": "error"
    },
    {
      "inputs": [],
      "name": "GovernorInvalidVoteParams",
      "type": "error"
    },
    {
      "inputs": [],
      "name": "GovernorInvalidVoteType",
      "type": "error"
    },
    {
      "inputs": [
        {
          "internalType": "uint256",
          "name": "votingPeriod",
          "type": "uint256"
        }
      ],
      "name": "GovernorInvalidVotingPeriod",
      "type": "error"
    },
    {
      "inputs": [
        {
          "internalType": "uint256",
          "name": "proposalId",
          "type": "uint256"
        }
      ],
      "name": "GovernorNonexistentProposal",
      "type": "error"
    },
    {
      "inputs": [
        {
          "internalType": "uint256",
          "name": "proposalId",
          "type": "uint256"
        }
      ],
      "name": "GovernorNotQueuedProposal",
      "type": "error"
    },
    {
      "inputs": [
        {
          "internalType": "address",
          "name": "account",
          "type": "address"
        }
      ],
      "name": "GovernorOnlyExecutor",
      "type": "error"
    },
    {
      "inputs": [],
      "name": "GovernorQueueNotImplemented",
      "type": "error"
    },
    {
      "inputs": [
        {
          "internalType": "address",
          "name": "proposer",
          "type": "address"
        }
      ],
      "name": "GovernorRestrictedProposer",
      "type": "error"
    },
    {
      "inputs": [
        {
          "internalType": "uint256",
          "name": "proposalId",
          "type": "uint256"
        },
        {
          "internalType": "address",
          "name": "account",
          "type": "address"
        }
      ],
      "name": "GovernorUnableToCancel",
      "type": "error"
    },
    {
      "inputs": [
        {
          "internalType": "uint256",
          "name": "proposalId",
          "type": "uint256"
        },
        {
          "internalType": "enum IGovernor.ProposalState",
          "name": "current",
          "type": "uint8"
        },
        {
          "internalType": "bytes32",
          "name": "expectedStates",
          "type": "bytes32"
        }
      ],
      "name": "GovernorUnexpectedProposalState",
      "type": "error"
    },
    {
      "inputs": [
        {
          "internalType": "address",
          "name": "account",
          "type": "address"
        },
        {
          "internalType": "uint256",
          "name": "currentNonce",
          "type": "uint256"
        }
      ],
      "name": "InvalidAccountNonce",
      "type": "error"
    },
    {
      "inputs": [],
      "name": "InvalidShortString",
      "type": "error"
    },
    {
      "inputs": [
        {
          "internalType": "uint8",
          "name": "bits",
          "type": "uint8"
        },
        {
          "internalType": "uint256",
          "name": "value",
          "type": "uint256"
        }
      ],
      "name": "SafeCastOverflowedUintDowncast",
      "type": "error"
    },
    {
      "inputs": [
        {
          "internalType": "string",
          "name": "str",
          "type": "string"
        }
      ],
      "name": "StringTooLong",
      "type": "error"
    },
    {
      "anonymous": false,
      "inputs": [],
      "name": "EIP712DomainChanged",
      "type": "event"
    },
    {
      "anonymous": false,
      "inputs": [
        {
          "indexed": false,
          "internalType": "uint256",
          "name": "proposalId",
          "type": "uint256"
        }
      ],
      "name": "ProposalCanceled",
      "type": "event"
    },
    {
      "anonymous": false,
      "inputs": [
        {
          "indexed": false,
          "internalType": "uint256",
          "name": "proposalId",
          "type": "uint256"
        },
        {
          "indexed": false,
          "internalType": "address",
          "name": "proposer",
          "type": "address"
        },
        {
          "indexed": false,
          "internalType": "address[]",
          "name": "targets",
          "type": "address[]"
        },
        {
          "indexed": false,
          "internalType": "uint256[]",
          "name": "values",
          "type": "uint256[]"
        },
        {
          "indexed": false,
          "internalType": "string[]",
          "name": "signatures",
          "type": "string[]"
        },
        {
          "indexed": false,
          "internalType": "bytes[]",
          "name": "calldatas",
          "type": "bytes[]"
        },
        {
          "indexed": false,
          "internalType": "uint256",
          "name": "voteStart",
          "type": "uint256"
        },
        {
          "indexed": false,
          "internalType": "uint256",
          "name": "voteEnd",
          "type": "uint256"
        },
        {
          "indexed": false,
          "internalType": "string",
          "name": "description",
          "type": "string"
        }
      ],
      "name": "ProposalCreated",
      "type": "event"
    },
    {
      "anonymous": false,
      "inputs": [
        {
          "indexed": false,
          "internalType": "uint256",
          "name": "proposalId",
          "type": "uint256"
        }
      ],
      "name": "ProposalExecuted",
      "type": "event"
    },
    {
      "anonymous": false,
      "inputs": [
        {
          "indexed": false,
          "internalType": "uint256",
          "name": "proposalId",
          "type": "uint256"
        },
        {
          "indexed": false,
          "internalType": "uint256",
          "name": "etaSeconds",
          "type": "uint256"
        }
      ],
      "name": "ProposalQueued",
      "type": "event"
    },
    {
      "anonymous": false,
      "inputs": [
        {
          "indexed": false,
          "internalType": "uint256",
          "name": "oldProposalThreshold",
          "type": "uint256"
        },
        {
          "indexed": false,
          "internalType": "uint256",
          "name": "newProposalThreshold",
          "type": "uint256"
        }
      ],
      "name": "ProposalThresholdSet",
      "type": "event"
    },
    {
      "anonymous": false,
      "inputs": [
        {
          "indexed": false,
          "internalType": "uint256",
          "name": "oldQuorumNumerator",
          "type": "uint256"
        },
        {
          "indexed": false,
          "internalType": "uint256",
          "name": "newQuorumNumerator",
          "type": "uint256"
        }
      ],
      "name": "QuorumNumeratorUpdated",
      "type": "event"
    },
    {
      "anonymous": false,
      "inputs": [
        {
          "indexed": false,
          "internalType": "address",
          "name": "oldTimelock",
          "type": "address"
        },
        {
          "indexed": false,
          "internalType": "address",
          "name": "newTimelock",
          "type": "address"
        }
      ],
      "name": "TimelockChange",
      "type": "event"
    },
    {
      "anonymous": false,
      "inputs": [
        {
          "indexed": true,
          "internalType": "address",
          "name": "voter",
          "type": "address"
        },
        {
          "indexed": false,
          "internalType": "uint256",
          "name": "proposalId",
          "type": "uint256"
        },
        {
          "indexed": false,
          "internalType": "uint8",
          "name": "support",
          "type": "uint8"
        },
        {
          "indexed": false,
          "internalType": "uint256",
          "name": "weight",
          "type": "uint256"
        },
        {
          "indexed": false,
          "internalType": "string",
          "name": "reason",
          "type": "string"
        }
      ],
      "name": "VoteCast",
      "type": "event"
    },
    {
      "anonymous": false,
      "inputs": [
        {
          "indexed": true,
          "internalType": "address",
          "name": "voter",
          "type": "address"
        },
        {
          "indexed": false,
          "internalType": "uint256",
          "name": "proposalId",
          "type": "uint256"
        },
        {
          "indexed": false,
          "internalType": "uint8",
          "name": "support",
          "type": "uint8"
        },
        {
          "indexed": false,
          "internalType": "uint256",
          "name": "weight",
          "type": "uint256"
        },
        {
          "indexed": false,
          "internalType": "string",
          "name": "reason",
          "type": "string"
        },
        {
          "indexed": false,
          "internalType": "bytes",
          "name": "params",
          "type": "bytes"
        }
      ],
      "name": "VoteCastWithParams",
      "type": "event"
    },
    {
      "anonymous": false,
      "inputs": [
        {
          "indexed": false,
          "internalType": "uint256",
          "name": "oldVotingDelay",
          "type": "uint256"
        },
        {
          "indexed": false,
          "internalType": "uint256",
          "name": "newVotingDelay",
          "type": "uint256"
        }
      ],
      "name": "VotingDelaySet",
      "type": "event"
    },
    {
      "anonymous": false,
      "inputs": [
        {
          "indexed": false,
          "internalType": "uint256",
          "name": "oldVotingPeriod",
          "type": "uint256"
        },
        {
          "indexed": false,
          "internalType": "uint256",
          "name": "newVotingPeriod",
          "type": "uint256"
        }
      ],
      "name": "VotingPeriodSet",
      "type": "event"
    },
    {
      "inputs": [],
      "name": "BALLOT_TYPEHASH",
      "outputs": [
        {
          "internalType": "bytes32",
          "name": "",
          "type": "bytes32"
        }
      ],
      "stateMutability": "view",
      "type": "function"
    },
    {
      "inputs": [],
      "name": "CLOCK_MODE",
      "outputs": [
        {
          "internalType": "string",
          "name": "",
          "type": "string"
        }
      ],
      "stateMutability": "view",
      "type": "function"
    },
    {
      "inputs": [],
      "name": "COUNTING_MODE",
      "outputs": [
        {
          "internalType": "string",
          "name": "",
          "type": "string"
        }
      ],
      "stateMutability": "pure",
      "type": "function"
    },
    {
      "inputs": [],
      "name": "EXTENDED_BALLOT_TYPEHASH",
      "outputs": [
        {
          "internalType": "bytes32",
          "name": "",
          "type": "bytes32"
        }
      ],
      "stateMutability": "view",
      "type": "function"
    },
    {
      "inputs": [
        {
          "internalType": "address[]",
          "name": "targets",
          "type": "address[]"
        },
        {
          "internalType": "uint256[]",
          "name": "values",
          "type": "uint256[]"
        },
        {
          "internalType": "bytes[]",
          "name": "calldatas",
          "type": "bytes[]"
        },
        {
          "internalType": "bytes32",
          "name": "descriptionHash",
          "type": "bytes32"
        }
      ],
      "name": "cancel",
      "outputs": [
        {
          "internalType": "uint256",
          "name": "",
          "type": "uint256"
        }
      ],
      "stateMutability": "nonpayable",
      "type": "function"
    },
    {
      "inputs": [
        {
          "internalType": "uint256",
          "name": "proposalId",
          "type": "uint256"
        },
        {
          "internalType": "uint8",
          "name": "support",
          "type": "uint8"
        }
      ],
      "name": "castVote",
      "outputs": [
        {
          "internalType": "uint256",
          "name": "",
          "type": "uint256"
        }
      ],
      "stateMutability": "nonpayable",
      "type": "function"
    },
    {
      "inputs": [
        {
          "internalType": "uint256",
          "name": "proposalId",
          "type": "uint256"
        },
        {
          "internalType": "uint8",
          "name": "support",
          "type": "uint8"
        },
        {
          "internalType": "address",
          "name": "voter",
          "type": "address"
        },
        {
          "internalType": "bytes",
          "name": "signature",
          "type": "bytes"
        }
      ],
      "name": "castVoteBySig",
      "outputs": [
        {
          "internalType": "uint256",
          "name": "",
          "type": "uint256"
        }
      ],
      "stateMutability": "nonpayable",
      "type": "function"
    },
    {
      "inputs": [
        {
          "internalType": "uint256",
          "name": "proposalId",
          "type": "uint256"
        },
        {
          "internalType": "uint8",
          "name": "support",
          "type": "uint8"
        },
        {
          "internalType": "string",
          "name": "reason",
          "type": "string"
        }
      ],
      "name": "castVoteWithReason",
      "outputs": [
        {
          "internalType": "uint256",
          "name": "",
          "type": "uint256"
        }
      ],
      "stateMutability": "nonpayable",
      "type": "function"
    },
    {
      "inputs": [
        {
          "internalType": "uint256",
          "name": "proposalId",
          "type": "uint256"
        },
        {
          "internalType": "uint8",
          "name": "support",
          "type": "uint8"
        },
        {
          "internalType": "string",
          "name": "reason",
          "type": "string"
        },
        {
          "internalType": "bytes",
          "name": "params",
          "type": "bytes"
        }
      ],
      "name": "castVoteWithReasonAndParams",
      "outputs": [
        {
          "internalType": "uint256",
          "name": "",
          "type": "uint256"
        }
      ],
      "stateMutability": "nonpayable",
      "type": "function"
    },
    {
      "inputs": [
        {
          "internalType": "uint256",
          "name": "proposalId",
          "type": "uint256"
        },
        {
          "internalType": "uint8",
          "name": "support",
          "type": "uint8"
        },
        {
          "internalType": "address",
          "name": "voter",
          "type": "address"
        },
        {
          "internalType": "string",
          "name": "reason",
          "type": "string"
        },
        {
          "internalType": "bytes",
          "name": "params",
          "type": "bytes"
        },
        {
          "internalType": "bytes",
          "name": "signature",
          "type": "bytes"
        }
      ],
      "name": "castVoteWithReasonAndParamsBySig",
      "outputs": [
        {
          "internalType": "uint256",
          "name": "",
          "type": "uint256"
        }
      ],
      "stateMutability": "nonpayable",
      "type": "function"
    },
    {
      "inputs": [],
      "name": "clock",
      "outputs": [
        {
          "internalType": "uint48",
          "name": "",
          "type": "uint48"
        }
      ],
      "stateMutability": "view",
      "type": "function"
    },
    {
      "inputs": [],
      "name": "eip712Domain",
      "outputs": [
        {
          "internalType": "bytes1",
          "name": "fields",
          "type": "bytes1"
        },
        {
          "internalType": "string",
          "name": "name",
          "type": "string"
        },
        {
          "internalType": "string",
          "name": "version",
          "type": "string"
        },
        {
          "internalType": "uint256",
          "name": "chainId",
          "type": "uint256"
        },
        {
          "internalType": "address",
          "name": "verifyingContract",
          "type": "address"
        },
        {
          "internalType": "bytes32",
          "name": "salt",
          "type": "bytes32"
        },
        {
          "internalType": "uint256[]",
          "name": "extensions",
          "type": "uint256[]"
        }
      ],
      "stateMutability": "view",
      "type": "function"
    },
    {
      "inputs": [
        {
          "internalType": "address[]",
          "name": "targets",
          "type": "address[]"
        },
        {
          "internalType": "uint256[]",
          "name": "values",
          "type": "uint256[]"
        },
        {
          "internalType": "bytes[]",
          "name": "calldatas",
          "type": "bytes[]"
        },
        {
          "internalType": "bytes32",
          "name": "descriptionHash",
          "type": "bytes32"
        }
      ],
      "name": "execute",
      "outputs": [
        {
          "internalType": "uint256",
          "name": "",
          "type": "uint256"
        }
      ],
      "stateMutability": "payable",
      "type": "function"
    },
    {
      "inputs": [
        {
          "internalType": "address[]",
          "name": "targets",
          "type": "address[]"
        },
        {
          "internalType": "uint256[]",
          "name": "values",
          "type": "uint256[]"
        },
        {
          "internalType": "bytes[]",
          "name": "calldatas",
          "type": "bytes[]"
        },
        {
          "internalType": "bytes32",
          "name": "descriptionHash",
          "type": "bytes32"
        }
      ],
      "name": "getProposalId",
      "outputs": [
        {
          "internalType": "uint256",
          "name": "",
          "type": "uint256"
        }
      ],
      "stateMutability": "view",
      "type": "function"
    },
    {
      "inputs": [
        {
          "internalType": "address",
          "name": "account",
          "type": "address"
        },
        {
          "internalType": "uint256",
          "name": "timepoint",
          "type": "uint256"
        }
      ],
      "name": "getVotes",
      "outputs": [
        {
          "internalType": "uint256",
          "name": "",
          "type": "uint256"
        }
      ],
      "stateMutability": "view",
      "type": "function"
    },
    {
      "inputs": [
        {
          "internalType": "address",
          "name": "account",
          "type": "address"
        },
        {
          "internalType": "uint256",
          "name": "timepoint",
          "type": "uint256"
        },
        {
          "internalType": "bytes",
          "name": "params",
          "type": "bytes"
        }
      ],
      "name": "getVotesWithParams",
      "outputs": [
        {
          "internalType": "uint256",
          "name": "",
          "type": "uint256"
        }
      ],
      "stateMutability": "view",
      "type": "function"
    },
    {
      "inputs": [
        {
          "internalType": "uint256",
          "name": "proposalId",
          "type": "uint256"
        },
        {
          "internalType": "address",
          "name": "account",
          "type": "address"
        }
      ],
      "name": "hasVoted",
      "outputs": [
        {
          "internalType": "bool",
          "name": "",
          "type": "bool"
        }
      ],
      "stateMutability": "view",
      "type": "function"
    },
    {
      "inputs": [
        {
          "internalType": "address[]",
          "name": "targets",
          "type": "address[]"
        },
        {
          "internalType": "uint256[]",
          "name": "values",
          "type": "uint256[]"
        },
        {
          "internalType": "bytes[]",
          "name": "calldatas",
          "type": "bytes[]"
        },
        {
          "internalType": "bytes32",
          "name": "descriptionHash",
          "type": "bytes32"
        }
      ],
      "name": "hashProposal",
      "outputs": [
        {
          "internalType": "uint256",
          "name": "",
          "type": "uint256"
        }
      ],
      "stateMutability": "pure",
      "type": "function"
    },
    {
      "inputs": [],
      "name": "name",
      "outputs": [
        {
          "internalType": "string",
          "name": "",
          "type": "string"
        }
      ],
      "stateMutability": "view",
      "type": "function"
    },
    {
      "inputs": [
        {
          "internalType": "address",
          "name": "owner",
          "type": "address"
        }
      ],
      "name": "nonces",
      "outputs": [
        {
          "internalType": "uint256",
          "name": "",
          "type": "uint256"
        }
      ],
      "stateMutability": "view",
      "type": "function"
    },
    {
      "inputs": [
        {
          "internalType": "address",
          "name": "",
          "type": "address"
        },
        {
          "internalType": "address",
          "name": "",
          "type": "address"
        },
        {
          "internalType": "uint256[]",
          "name": "",
          "type": "uint256[]"
        },
        {
          "internalType": "uint256[]",
          "name": "",
          "type": "uint256[]"
        },
        {
          "internalType": "bytes",
          "name": "",
          "type": "bytes"
        }
      ],
      "name": "onERC1155BatchReceived",
      "outputs": [
        {
          "internalType": "bytes4",
          "name": "",
          "type": "bytes4"
        }
      ],
      "stateMutability": "nonpayable",
      "type": "function"
    },
    {
      "inputs": [
        {
          "internalType": "address",
          "name": "",
          "type": "address"
        },
        {
          "internalType": "address",
          "name": "",
          "type": "address"
        },
        {
          "internalType": "uint256",
          "name": "",
          "type": "uint256"
        },
        {
          "internalType": "uint256",
          "name": "",
          "type": "uint256"
        },
        {
          "internalType": "bytes",
          "name": "",
          "type": "bytes"
        }
      ],
      "name": "onERC1155Received",
      "outputs": [
        {
          "internalType": "bytes4",
          "name": "",
          "type": "bytes4"
        }
      ],
      "stateMutability": "nonpayable",
      "type": "function"
    },
    {
      "inputs": [
        {
          "internalType": "address",
          "name": "",
          "type": "address"
        },
        {
          "internalType": "address",
          "name": "",
          "type": "address"
        },
        {
          "internalType": "uint256",
          "name": "",
          "type": "uint256"
        },
        {
          "internalType": "bytes",
          "name": "",
          "type": "bytes"
        }
      ],
      "name": "onERC721Received",
      "outputs": [
        {
          "internalType": "bytes4",
          "name": "",
          "type": "bytes4"
        }
      ],
      "stateMutability": "nonpayable",
      "type": "function"
    },
    {
      "inputs": [
        {
          "internalType": "uint256",
          "name": "proposalId",
          "type": "uint256"
        }
      ],
      "name": "proposalDeadline",
      "outputs": [
        {
          "internalType": "uint256",
          "name": "",
          "type": "uint256"
        }
      ],
      "stateMutability": "view",
      "type": "function"
    },
    {
      "inputs": [
        {
          "internalType": "uint256",
          "name": "proposalId",
          "type": "uint256"
        }
      ],
      "name": "proposalEta",
      "outputs": [
        {
          "internalType": "uint256",
          "name": "",
          "type": "uint256"
        }
      ],
      "stateMutability": "view",
      "type": "function"
    },
    {
      "inputs": [
        {
          "internalType": "uint256",
          "name": "",
          "type": "uint256"
        }
      ],
      "name": "proposalNeedsQueuing",
      "outputs": [
        {
          "internalType": "bool",
          "name": "",
          "type": "bool"
        }
      ],
      "stateMutability": "view",
      "type": "function"
    },
    {
      "inputs": [
        {
          "internalType": "uint256",
          "name": "proposalId",
          "type": "uint256"
        }
      ],
      "name": "proposalProposer",
      "outputs": [
        {
          "internalType": "address",
          "name": "",
          "type": "address"
        }
      ],
      "stateMutability": "view",
      "type": "function"
    },
    {
      "inputs": [
        {
          "internalType": "uint256",
          "name": "proposalId",
          "type": "uint256"
        }
      ],
      "name": "proposalSnapshot",
      "outputs": [
        {
          "internalType": "uint256",
          "name": "",
          "type": "uint256"
        }
      ],
      "stateMutability": "view",
      "type": "function"
    },
    {
      "inputs": [],
      "name": "proposalThreshold",
      "outputs": [
        {
          "internalType": "uint256",
          "name": "",
          "type": "uint256"
        }
      ],
      "stateMutability": "view",
      "type": "function"
    },
    {
      "inputs": [
        {
          "internalType": "uint256",
          "name": "",
          "type": "uint256"
        }
      ],
      "name": "proposalTypes",
      "outputs": [
        {
          "internalType": "enum CryptoVenturesGovernance.ProposalType",
          "name": "",
          "type": "uint8"
        }
      ],
      "stateMutability": "view",
      "type": "function"
    },
    {
      "inputs": [
        {
          "internalType": "uint256",
          "name": "proposalId",
          "type": "uint256"
        }
      ],
      "name": "proposalVotes",
      "outputs": [
        {
          "internalType": "uint256",
          "name": "againstVotes",
          "type": "uint256"
        },
        {
          "internalType": "uint256",
          "name": "forVotes",
          "type": "uint256"
        },
        {
          "internalType": "uint256",
          "name": "abstainVotes",
          "type": "uint256"
        }
      ],
      "stateMutability": "view",
      "type": "function"
    },
    {
      "inputs": [
        {
          "internalType": "address[]",
          "name": "targets",
          "type": "address[]"
        },
        {
          "internalType": "uint256[]",
          "name": "values",
          "type": "uint256[]"
        },
        {
          "internalType": "bytes[]",
          "name": "calldatas",
          "type": "bytes[]"
        },
        {
          "internalType": "string",
          "name": "description",
          "type": "string"
        }
      ],
      "name": "propose",
      "outputs": [
        {
          "internalType": "uint256",
          "name": "",
          "type": "uint256"
        }
      ],
      "stateMutability": "nonpayable",
      "type": "function"
    },
    {
      "inputs": [
        {
          "internalType": "address[]",
          "name": "targets",
          "type": "address[]"
        },
        {
          "internalType": "uint256[]",
          "name": "values",
          "type": "uint256[]"
        },
        {
          "internalType": "bytes[]",
          "name": "calldatas",
          "type": "bytes[]"
        },
        {
          "internalType": "string",
          "name": "description",
          "type": "string"
        },
        {
          "internalType": "enum CryptoVenturesGovernance.ProposalType",
          "name": "proposalType",
          "type": "uint8"
        }
      ],
      "name": "propose",
      "outputs": [
        {
          "internalType": "uint256",
          "name": "",
          "type": "uint256"
        }
      ],
      "stateMutability": "nonpayable",
      "type": "function"
    },
    {
      "inputs": [
        {
          "internalType": "address[]",
          "name": "targets",
          "type": "address[]"
        },
        {
          "internalType": "uint256[]",
          "name": "values",
          "type": "uint256[]"
        },
        {
          "internalType": "bytes[]",
          "name": "calldatas",
          "type": "bytes[]"
        },
        {
          "internalType": "bytes32",
          "name": "descriptionHash",
          "type": "bytes32"
        }
      ],
      "name": "queue",
      "outputs": [
        {
          "internalType": "uint256",
          "name": "",
          "type": "uint256"
        }
      ],
      "stateMutability": "nonpayable",
      "type": "function"
    },
    {
      "inputs": [
        {
          "internalType": "uint256",
          "name": "blockNumber",
          "type": "uint256"
        }
      ],
      "name": "quorum",
      "outputs": [
        {
          "internalType": "uint256",
          "name": "",
          "type": "uint256"
        }
      ],
      "stateMutability": "view",
      "type": "function"
    },
    {
      "inputs": [],
      "name": "quorumDenominator",
      "outputs": [
        {
          "internalType": "uint256",
          "name": "",
          "type": "uint256"
        }
      ],
      "stateMutability": "view",
      "type": "function"
    },
    {
      "inputs": [
        {
          "internalType": "uint256",
          "name": "timepoint",
          "type": "uint256"
        }
      ],
      "name": "quorumNumerator",
      "outputs": [
        {
          "internalType": "uint256",
          "name": "",
          "type": "uint256"
        }
      ],
      "stateMutability": "view",
      "type": "function"
    },
    {
      "inputs": [],
      "name": "quorumNumerator",
      "outputs": [
        {
          "internalType": "uint256",
          "name": "",
          "type": "uint256"
        }
      ],
      "stateMutability": "view",
      "type": "function"
    },
    {
      "inputs": [
        {
          "internalType": "address",
          "name": "target",
          "type": "address"
        },
        {
          "internalType": "uint256",
          "name": "value",
          "type": "uint256"
        },
        {
          "internalType": "bytes",
          "name": "data",
          "type": "bytes"
        }
      ],
      "name": "relay",
      "outputs": [],
      "stateMutability": "payable",
      "type": "function"
    },
    {
      "inputs": [
        {
          "internalType": "uint256",
          "name": "newProposalThreshold",
          "type": "uint256"
        }
      ],
      "name": "setProposalThreshold",
      "outputs": [],
      "stateMutability": "nonpayable",
      "type": "function"
    },
    {
      "inputs": [
        {
          "internalType": "uint48",
          "name": "newVotingDelay",
          "type": "uint48"
        }
      ],
      "name": "setVotingDelay",
      "outputs": [],
      "stateMutability": "nonpayable",
      "type": "function"
    },
    {
      "inputs": [
        {
          "internalType": "uint32",
          "name": "newVotingPeriod",
          "type": "uint32"
        }
      ],
      "name": "setVotingPeriod",
      "outputs": [],
      "stateMutability": "nonpayable",
      "type": "function"
    },
    {
      "inputs": [
        {
          "internalType": "uint256",
          "name": "proposalId",
          "type": "uint256"
        }
      ],
      "name": "state",
      "outputs": [
        {
          "internalType": "enum IGovernor.ProposalState",
          "name": "",
          "type": "uint8"
        }
      ],
      "stateMutability": "view",
      "type": "function"
    },
    {
      "inputs": [
        {
          "internalType": "bytes4",
          "name": "interfaceId",
          "type": "bytes4"
        }
      ],
      "name": "supportsInterface",
      "outputs": [
        {
          "internalType": "bool",
          "name": "",
          "type": "bool"
        }
      ],
      "stateMutability": "view",
      "type": "function"
    },
    {
      "inputs": [],
      "name": "timelock",
      "outputs": [
        {
          "internalType": "address",
          "name": "",
          "type": "address"
        }
      ],
      "stateMutability": "view",
      "type": "function"
    },
    {
      "inputs": [],
      "name": "token",
      "outputs": [
        {
          "internalType": "contract IERC5805",
          "name": "",
          "type": "address"
        }
      ],
      "stateMutability": "view",
      "type": "function"
    },
    {
      "inputs": [
        {
          "internalType": "enum CryptoVenturesGovernance.ProposalType",
          "name": "",
          "type": "uint8"
        }
      ],
      "name": "typeConfigs",
      "outputs": [
        {
          "internalType": "uint256",
          "name": "quorumPercentage",
          "type": "uint256"
        },
        {
          "internalType": "uint256",
          "name": "timelockDelay",
          "type": "uint256"
        }
      ],
      "stateMutability": "view",
      "type": "function"
    },
    {
      "inputs": [
        {
          "internalType": "uint256",
          "name": "newQuorumNumerator",
          "type": "uint256"
        }
      ],
      "name": "updateQuorumNumerator",
      "outputs": [],
      "stateMutability": "nonpayable",
      "type": "function"
    },
    {
      "inputs": [],
      "name": "version",
      "outputs": [
        {
          "internalType": "string",
          "name": "",
          "type": "string"
        }
      ],
      "stateMutability": "view",
      "type": "function"
    },
    {
      "inputs": [],
      "name": "votingDelay",
      "outputs": [
        {
          "internalType": "uint256",
          "name": "",
          "type": "uint256"
        }
      ],
      "stateMutability": "view",
      "type": "function"
    },
    {
      "inputs": [],
      "name": "votingPeriod",
      "outputs": [
        {
          "internalType": "uint256",
          "name": "",
          "type": "uint256"
        }
      ],
      "stateMutability": "view",
      "type": "function"
    },
    {
      "stateMutability": "payable",
      "type": "receive"
    }
  ],
  "bytecode": "0x61018060405234801562000011575f80fd5b506040516200519f3803806200519f8339810160408190526200003491620008b5565b6004826201518062093a80633b9aca006040518060400160405280601881526020017f43727970746f56656e7475726573476f7665726e616e63650000000000000000815250806200008b620002d160201b60201c565b62000097825f620002ec565b61012052620000a8816001620002ec565b61014052815160208084019190912060e052815190820120610100524660a0526200013560e05161010051604080517f8b73c3c69bb8fe3d512ecc4cf759cc79239f7b179b0ffacaa9a75d522b39400f60208201529081019290925260608201524660808201523060a08201525f9060c00160405160208183030381529060405280519060200120905090565b60805250503060c05260036200014c828262000990565b506200015a90508362000324565b62000165826200038a565b62000170816200042f565b5050506001600160a01b0316610160526200018b8162000470565b5062000197816200050f565b5050604080518082018252601481526202a30060208083019182525f808052600d80835293517f81955a0a11e65eac625c29e8882660bae4e165a75d72780094acae8ece9a29ee5591517f81955a0a11e65eac625c29e8882660bae4e165a75d72780094acae8ece9a29ef5583518085018552600a8152620151808183019081526001845284835290517ffd54ff1ed53f34a900b24c5ba64f85761163b5d82d98a47b9bd80e45466993c555517ffd54ff1ed53f34a900b24c5ba64f85761163b5d82d98a47b9bd80e45466993c65583518085019094526004845261546084820190815260029092529190915290517f10a81eed9d63d16face5e76357905348e6253d3394086026bb2bf2145d7cc24955517f10a81eed9d63d16face5e76357905348e6253d3394086026bb2bf2145d7cc24a5562000b15565b6040805180820190915260018152603160f81b602082015290565b5f6020835110156200030b57620003038362000578565b90506200031e565b8162000318848262000990565b5060ff90505b92915050565b6008546040805165ffffffffffff928316815291831660208301527fc565b045403dc03c2eea82b81a0465edad9e2e7fc4d97e11421c209da93d7a93910160405180910390a16008805465ffffffffffff191665ffffffffffff92909216919091179055565b8063ffffffff165f03620003b85760405163f1cfbf0560e01b81525f60048201526024015b60405180910390fd5b6008546040805163ffffffff66010000000000009093048316815291831660208301527f7e3f7f0708a84de9203036abaa450dccc85ad5ff52f78c170f3edb55cf5e8828910160405180910390a16008805463ffffffff90921666010000000000000263ffffffff60301b19909216919091179055565b60075460408051918252602082018390527fccb45da8d5717e6c4544694297c4ba5cf151d455c9bb0ed4fc7a38411bc05461910160405180910390a1600755565b6064808211156200049f5760405163243e544560e01b81526004810183905260248101829052604401620003af565b5f620004aa620005ba565b9050620004cf620004ba620005d5565b620004c58562000656565b600a91906200068f565b505060408051828152602081018590527f0553476bf02ef2726e8ce5ced78d63e26e602e4a2257b1f559418e24b4633997910160405180910390a1505050565b600b54604080516001600160a01b03928316815291831660208301527f08f74ea46ef7894f65eabfb5e6e695de773a000b47c529ab559178069b226401910160405180910390a1600b80546001600160a01b0319166001600160a01b0392909216919091179055565b5f80829050601f81511115620005a5578260405163305a27a960e01b8152600401620003af919062000a5c565b8051620005b28262000aaa565b179392505050565b5f620005c7600a620006ab565b6001600160d01b0316905090565b5f620005e16101605190565b6001600160a01b03166391ddadf46040518163ffffffff1660e01b8152600401602060405180830381865afa9250505080156200063d575060408051601f3d908101601f191682019092526200063a9181019062000ace565b60015b62000651576200064c620006f8565b905090565b919050565b5f6001600160d01b038211156200068b576040516306dfcc6560e41b815260d0600482015260248101839052604401620003af565b5090565b5f806200069e85858562000704565b915091505b935093915050565b80545f908015620006ef57620006d583620006c860018462000af5565b5f91825260209091200190565b54660100000000000090046001600160d01b0316620006f1565b5f5b9392505050565b5f6200064c4362000869565b82545f90819080156200080b575f6200072487620006c860018562000af5565b805490915065ffffffffffff80821691660100000000000090046001600160d01b03169088168211156200076b57604051632520601d60e01b815260040160405180910390fd5b8765ffffffffffff168265ffffffffffff1603620007a957825465ffffffffffff1666010000000000006001600160d01b03891602178355620007fc565b6040805180820190915265ffffffffffff808a1682526001600160d01b03808a1660208085019182528d54600181018f555f8f815291909120945191519092166601000000000000029216919091179101555b9450859350620006a392505050565b50506040805180820190915265ffffffffffff80851682526001600160d01b0380851660208085019182528854600181018a555f8a8152918220955192519093166601000000000000029190931617920191909155905081620006a3565b5f65ffffffffffff8211156200068b576040516306dfcc6560e41b81526030600482015260248101839052604401620003af565b6001600160a01b0381168114620008b2575f80fd5b50565b5f8060408385031215620008c7575f80fd5b8251620008d4816200089d565b6020840151909250620008e7816200089d565b809150509250929050565b634e487b7160e01b5f52604160045260245ffd5b600181811c908216806200091b57607f821691505b6020821081036200093a57634e487b7160e01b5f52602260045260245ffd5b50919050565b601f8211156200098b57805f5260205f20601f840160051c81016020851015620009675750805b601f840160051c820191505b8181101562000988575f815560010162000973565b50505b505050565b81516001600160401b03811115620009ac57620009ac620008f2565b620009c481620009bd845462000906565b8462000940565b602080601f831160018114620009fa575f8415620009e25750858301515b5f19600386901b1c1916600185901b17855562000a54565b5f85815260208120601f198616915b8281101562000a2a5788860151825594840194600190910190840162000a09565b508582101562000a4857878501515f19600388901b60f8161c191681555b505060018460011b0185555b505050505050565b5f602080835283518060208501525f5b8181101562000a8a5785810183015185820160400152820162000a6c565b505f604082860101526040601f19601f8301168501019250505092915050565b805160208083015191908110156200093a575f1960209190910360031b1b16919050565b5f6020828403121562000adf575f80fd5b815165ffffffffffff81168114620006f1575f80fd5b818103818111156200031e57634e487b7160e01b5f52601160045260245ffd5b60805160a05160c05160e0516101005161012051610140516101605161460b62000b945f395f8181610a7f0152818161100a01528181611330015281816121cf015281816123870152612b1b01525f611ee701525f611ebb01525f61300401525f612fdc01525f612f3701525f612f6101525f612f8b015261460b5ff3fe6080604052600436106102dc575f3560e01c806384b0196e11610189578063bc197c81116100d8578063deaaa7cc11610092578063ece40cc11161006d578063ece40cc114610a14578063f23a6e6114610a33578063f8ce560a14610a52578063fc0c546a14610a71575f80fd5b8063deaaa7cc146109a3578063e540d01d146109d6578063eb9019d4146109f5575f80fd5b8063bc197c81146108d1578063c01f9e37146108f0578063c28bc2fa1461090f578063c59057e414610922578063d33219b414610941578063dd4e2ba51461095e575f80fd5b8063a1ee039411610143578063a8f8a6681161011e578063a8f8a66814610853578063a9a9529414610872578063ab58fb8e14610892578063b58131b0146108bd575f80fd5b8063a1ee0394146107bd578063a6fb56ac14610804578063a7713a701461083f575f80fd5b806384b0196e146106fb5780638ff262e31461072257806391ddadf41461074157806397c3d3341461076c5780639a79018e1461077f5780639a802a6d1461079e575f80fd5b806343859632116102455780635b8d0e0d116101ff57806379051887116101da578063790518871461066a5780637b3c71d3146106895780637d5e81e2146106a85780637ecebe00146106c7575f80fd5b80635b8d0e0d1461060d5780635f398a141461062c57806360c4247f1461064b575f80fd5b80634385963214610510578063452115d6146105585780634bf5d7e914610577578063544ffc9c1461058b57806354fd4d50146105c557806356781388146105ee575f80fd5b8063160cbed711610296578063160cbed7146104445780632656227d146104635780632d63f693146104765780632fe3e261146104955780633932abb1146104c85780633e4f49e6146104e4575f80fd5b806301ffc9a71461032157806302a251a31461035557806306f3f9e61461038057806306fdde031461039f578063143489d0146103c0578063150b7a021461040c575f80fd5b3661031d57306102f4600b546001600160a01b031690565b6001600160a01b03161461031b57604051637485328f60e11b815260040160405180910390fd5b005b5f80fd5b34801561032c575f80fd5b5061034061033b366004613546565b610aa3565b60405190151581526020015b60405180910390f35b348015610360575f80fd5b50600854600160301b900463ffffffff165b60405190815260200161034c565b34801561038b575f80fd5b5061031b61039a36600461356d565b610b0f565b3480156103aa575f80fd5b506103b3610b23565b60405161034c91906135d1565b3480156103cb575f80fd5b506103f46103da36600461356d565b5f908152600460205260409020546001600160a01b031690565b6040516001600160a01b03909116815260200161034c565b348015610417575f80fd5b5061042b6104263660046136b5565b610bb3565b6040516001600160e01b0319909116815260200161034c565b34801561044f575f80fd5b5061037261045e36600461387e565b610bff565b61037261047136600461387e565b610ccb565b348015610481575f80fd5b5061037261049036600461356d565b610e47565b3480156104a0575f80fd5b506103727f3e83946653575f9a39005e1545185629e92736b7528ab20ca3816f315424a81181565b3480156104d3575f80fd5b5060085465ffffffffffff16610372565b3480156104ef575f80fd5b506105036104fe36600461356d565b610e67565b60405161034c919061392f565b34801561051b575f80fd5b5061034061052a36600461393d565b5f8281526009602090815260408083206001600160a01b038516845260030190915290205460ff1692915050565b348015610563575f80fd5b5061037261057236600461387e565b610fa0565b348015610582575f80fd5b506103b3611006565b348015610596575f80fd5b506105aa6105a536600461356d565b6110c6565b6040805193845260208401929092529082015260600161034c565b3480156105d0575f80fd5b506040805180820190915260018152603160f81b60208201526103b3565b3480156105f9575f80fd5b50610372610608366004613977565b6110eb565b348015610618575f80fd5b506103726106273660046139dc565b611112565b348015610637575f80fd5b50610372610646366004613a8c565b6111cf565b348015610656575f80fd5b5061037261066536600461356d565b611217565b348015610675575f80fd5b5061031b610684366004613b1c565b611223565b348015610694575f80fd5b506103726106a3366004613b37565b611234565b3480156106b3575f80fd5b506103726106c2366004613b8c565b611284565b3480156106d2575f80fd5b506103726106e1366004613c25565b6001600160a01b03165f9081526002602052604090205490565b348015610706575f80fd5b5061070f61129c565b60405161034c9796959493929190613c78565b34801561072d575f80fd5b5061037261073c366004613ce7565b6112de565b34801561074c575f80fd5b5061075561132d565b60405165ffffffffffff909116815260200161034c565b348015610777575f80fd5b506064610372565b34801561078a575f80fd5b50610372610799366004613d40565b6113b9565b3480156107a9575f80fd5b506103726107b8366004613df5565b611402565b3480156107c8575f80fd5b506107ef6107d7366004613e47565b600d6020525f90815260409020805460019091015482565b6040805192835260208301919091520161034c565b34801561080f575f80fd5b5061083261081e36600461356d565b600c6020525f908152604090205460ff1681565b60405161034c9190613e60565b34801561084a575f80fd5b50610372611418565b34801561085e575f80fd5b5061037261086d36600461387e565b611431565b34801561087d575f80fd5b5061034061088c36600461356d565b50600190565b34801561089d575f80fd5b506103726108ac36600461356d565b5f908152600f602052604090205490565b3480156108c8575f80fd5b5061037261143e565b3480156108dc575f80fd5b5061042b6108eb366004613e7a565b611448565b3480156108fb575f80fd5b5061037261090a36600461356d565b611495565b61031b61091d366004613f02565b6114d7565b34801561092d575f80fd5b5061037261093c36600461387e565b611553565b34801561094c575f80fd5b50600b546001600160a01b03166103f4565b348015610969575f80fd5b506040805180820190915260208082527f737570706f72743d627261766f2671756f72756d3d666f722c6162737461696e908201526103b3565b3480156109ae575f80fd5b506103727ff2aad550cf55f045cb27e9c559f9889fdfb6e6cdaa032301d6ea397784ae51d781565b3480156109e1575f80fd5b5061031b6109f0366004613f3f565b61158c565b348015610a00575f80fd5b50610372610a0f366004613f62565b61159d565b348015610a1f575f80fd5b5061031b610a2e36600461356d565b6115bc565b348015610a3e575f80fd5b5061042b610a4d366004613f8a565b6115cd565b348015610a5d575f80fd5b50610372610a6c36600461356d565b61161a565b348015610a7c575f80fd5b507f00000000000000000000000000000000000000000000000000000000000000006103f4565b5f6001600160e01b031982166366defe7760e11b1480610ad357506001600160e01b031982166332a2ad4360e11b145b80610aee57506001600160e01b03198216630271189760e51b145b80610b0957506301ffc9a760e01b6001600160e01b03198316145b92915050565b610b17611624565b610b20816116a2565b50565b606060038054610b3290613fe9565b80601f0160208091040260200160405190810160405280929190818152602001828054610b5e90613fe9565b8015610ba95780601f10610b8057610100808354040283529160200191610ba9565b820191905f5260205f20905b815481529060010190602001808311610b8c57829003601f168201915b5050505050905090565b5f30610bc7600b546001600160a01b031690565b6001600160a01b031614610bee57604051637485328f60e11b815260040160405180910390fd5b50630a85bd0160e11b949350505050565b5f80610c0d86868686611431565b9050610c2281610c1d6004611737565b611759565b505f610c318288888888611796565b905065ffffffffffff811615610ca8575f82815260046020908152604091829020600101805465ffffffffffff191665ffffffffffff85169081179091558251858152918201527f9a2e42fd6722813d69113e7d0079d3d940171428df7373df9c7f7617cfda2892910160405180910390a1610cc1565b604051634844252360e11b815260040160405180910390fd5b5095945050505050565b5f80610cd986868686611431565b9050610cf981610ce96005611737565b610cf36004611737565b17611759565b505f818152600460205260409020805460ff60f01b1916600160f01b17905530610d2b600b546001600160a01b031690565b6001600160a01b031614610db4575f5b8651811015610db257306001600160a01b0316878281518110610d6057610d60614021565b60200260200101516001600160a01b031603610daa57610daa858281518110610d8b57610d8b614021565b602002602001015180519060200120600561192890919063ffffffff16565b600101610d3b565b505b610dc18187878787611989565b30610dd4600b546001600160a01b031690565b6001600160a01b031614158015610e0057506005546001600160801b03808216600160801b9092041614155b15610e0a575f6005555b6040518181527f712ae1383f79ac853f8d882153778e0260ef8f03b504e2866e0593e04d2b291f906020015b60405180910390a195945050505050565b5f90815260046020526040902054600160a01b900465ffffffffffff1690565b5f80610e7283611a26565b90506005816007811115610e8857610e88613907565b14610e935792915050565b5f838152600e60205260409081902054600b549151632c258a9f60e11b81526004810182905290916001600160a01b03169063584b153e90602401602060405180830381865afa158015610ee9573d5f803e3d5ffd5b505050506040513d601f19601f82011682018060405250810190610f0d9190614035565b15610f1c575060059392505050565b600b54604051632ab0f52960e01b8152600481018390526001600160a01b0390911690632ab0f52990602401602060405180830381865afa158015610f63573d5f803e3d5ffd5b505050506040513d601f19601f82011682018060405250810190610f879190614035565b15610f96575060079392505050565b5060029392505050565b5f80610fae86868686611431565b905033610fbb8282611b4c565b610fef57604051638fe5d8a960e01b8152600481018390526001600160a01b03821660248201526044015b60405180910390fd5b610ffb87878787611b91565b979650505050505050565b60607f00000000000000000000000000000000000000000000000000000000000000006001600160a01b0316634bf5d7e96040518163ffffffff1660e01b81526004015f60405180830381865afa92505050801561108557506040513d5f823e601f3d908101601f191682016040526110829190810190614054565b60015b6110c1575060408051808201909152601d81527f6d6f64653d626c6f636b6e756d6265722666726f6d3d64656661756c74000000602082015290565b919050565b5f818152600960205260409020805460018201546002909201549091905b9193909250565b5f8033905061110a84828560405180602001604052805f815250611c35565b949350505050565b5f61115888888888888080601f0160208091040260200160405190810160405280939291908181526020018383808284375f920191909152508a9250899150611c569050565b611180576040516394ab6c0760e01b81526001600160a01b0387166004820152602401610fe6565b6111c388878988888080601f0160208091040260200160405190810160405280939291908181526020018383808284375f920191909152508a9250611d23915050565b98975050505050505050565b5f80339050610ffb87828888888080601f0160208091040260200160405190810160405280939291908181526020018383808284375f920191909152508a9250611d23915050565b5f610b09600a83611e01565b61122b611624565b610b2081611e4e565b5f8033905061127a86828787878080601f0160208091040260200160405190810160405280939291908181526020018383808284375f92019190915250611c3592505050565b9695505050505050565b5f6112938585858560016113b9565b95945050505050565b5f6060805f805f60606112ad611eb4565b6112b5611ee0565b604080515f80825260208201909252600f60f81b9b939a50919850469750309650945092509050565b5f6112eb85858585611f0d565b611313576040516394ab6c0760e01b81526001600160a01b0384166004820152602401610fe6565b61129385848660405180602001604052805f815250611c35565b5f7f00000000000000000000000000000000000000000000000000000000000000006001600160a01b03166391ddadf46040518163ffffffff1660e01b8152600401602060405180830381865afa9250505080156113a8575060408051601f3d908101601f191682019092526113a5918101906140bc565b60015b6110c1576113b4611f96565b905090565b5f806113c787878787611fa0565b5f818152600c602052604090208054919250849160ff191660018360028111156113f3576113f3613907565b02179055509695505050505050565b5f61140e848484612056565b90505b9392505050565b5f611423600a61206e565b6001600160d01b0316905090565b5f61129385858585611553565b5f6113b460075490565b5f3061145c600b546001600160a01b031690565b6001600160a01b03161461148357604051637485328f60e11b815260040160405180910390fd5b5063bc197c8160e01b95945050505050565b5f818152600460205260408120546114c990600160d01b810463ffffffff1690600160a01b900465ffffffffffff166140eb565b65ffffffffffff1692915050565b6114df611624565b5f80856001600160a01b03168585856040516114fc929190614111565b5f6040518083038185875af1925050503d805f8114611536576040519150601f19603f3d011682016040523d82523d5f602084013e61153b565b606091505b509150915061154a82826120b2565b50505050505050565b5f8484848460405160200161156b94939291906141b0565b60408051601f19818403018152919052805160209091012095945050505050565b611594611624565b610b20816120ce565b5f61141183836115b760408051602081019091525f815290565b612056565b6115c4611624565b610b208161216a565b5f306115e1600b546001600160a01b031690565b6001600160a01b03161461160857604051637485328f60e11b815260040160405180910390fd5b5063f23a6e6160e01b95945050505050565b5f610b09826121ab565b600b546001600160a01b03163314611651576040516347096e4760e01b8152336004820152602401610fe6565b30611664600b546001600160a01b031690565b6001600160a01b0316146116a0575f8036604051611683929190614111565b604051809103902090505b806116996005612248565b0361168e57505b565b6064808211156116cf5760405163243e544560e01b81526004810183905260248101829052604401610fe6565b5f6116d8611418565b90506116f76116e561132d565b6116ee856122b5565b600a91906122ec565b505060408051828152602081018590527f0553476bf02ef2726e8ce5ced78d63e26e602e4a2257b1f559418e24b4633997910160405180910390a1505050565b5f81600781111561174a5761174a613907565b600160ff919091161b92915050565b5f8061176484610e67565b90505f8361177183611737565b1603611411578381846040516331b75e4d60e01b8152600401610fe6939291906141fa565b5f858152600c602052604081205460ff1681600d818360028111156117bd576117bd613907565b60028111156117ce576117ce613907565b81526020019081526020015f206001015490505f6117fd856bffffffffffffffffffffffff193060601b161890565b600b5460405163b1c5f42760e01b81529192506001600160a01b03169063b1c5f42790611836908b908b908b905f90889060040161421c565b602060405180830381865afa158015611851573d5f803e3d5ffd5b505050506040513d601f19601f820116820180604052508101906118759190614269565b5f8a8152600e602052604080822092909255600b5491516308f2a0bb60e41b81526001600160a01b0390921691638f2a0bb0916118bf918c918c918c919088908a90600401614280565b5f604051808303815f87803b1580156118d6575f80fd5b505af11580156118e8573d5f803e3d5ffd5b505050505f61190183426118fc91906142d7565b612306565b5f8b8152600f6020526040902065ffffffffffff8216905594505050505095945050505050565b81546001600160801b03600160801b820481169181166001830190911603611954576119546041612338565b6001600160801b038082165f90815260018086016020526040909120939093558354919092018216600160801b029116179055565b600b546001600160a01b031663e38335e5348686865f3060601b6bffffffffffffffffffffffff191688186040518763ffffffff1660e01b81526004016119d495949392919061421c565b5f604051808303818588803b1580156119eb575f80fd5b505af11580156119fd573d5f803e3d5ffd5b5050505f9687525050600e60209081526040808720879055600f90915285209490945550505050565b5f818152600460205260408120805460ff600160f01b8204811691600160f81b9004168115611a5a57506007949350505050565b8015611a6b57506002949350505050565b5f611a7586610e47565b9050805f03611a9a57604051636ad0607560e01b815260048101879052602401610fe6565b5f611aa361132d565b65ffffffffffff169050808210611ac057505f9695505050505050565b5f611aca88611495565b9050818110611ae157506001979650505050505050565b611aea88612349565b1580611b0957505f888152600960205260409020805460019091015411155b15611b1c57506003979650505050505050565b5f888152600f60205260409020545f03611b3e57506004979650505050505050565b506005979650505050505050565b5f80611b5784610e67565b6007811115611b6857611b68613907565b1480156114115750505f91825260046020526040909120546001600160a01b0391821691161490565b5f80611b9f86868686612486565b5f818152600e60205260409020549091508015610cc157600b5460405163c4d252f560e01b8152600481018390526001600160a01b039091169063c4d252f5906024015f604051808303815f87803b158015611bf9575f80fd5b505af1158015611c0b573d5f803e3d5ffd5b5050505f838152600e60209081526040808320839055600f90915281205550509050949350505050565b5f61129385858585611c5160408051602081019091525f815290565b611d23565b5f610ffb85611d1d7f3e83946653575f9a39005e1545185629e92736b7528ab20ca3816f315424a8118a8a8a611ca88c6001600160a01b03165f90815260026020526040902080546001810190915590565b8b516020808e01919091208c518d830120604051611d0298979695949301968752602087019590955260ff9390931660408601526001600160a01b03919091166060850152608084015260a083015260c082015260e00190565b60405160208183030381529060405280519060200120612535565b84612561565b5f611d3286610c1d6001611737565b505f611d4786611d4189610e47565b85612056565b90505f611d5788888885886125d1565b905083515f03611dad57866001600160a01b03167fb8e138887d0aa13bab447e82de9d5c1777041ecd21ca36ba824ff1e6c07ddda489888489604051611da094939291906142ea565b60405180910390a2610ffb565b866001600160a01b03167fe2babfbac5889a709b63bb7f598b324e08bc5a4fb9ec647fb3cbc9ec07eb87128988848989604051611dee959493929190614311565b60405180910390a2979650505050505050565b5f805f611e0d856126cd565b9250925050838265ffffffffffff161115611e3a57611e35611e2e85612306565b8690612725565b611e3c565b805b6001600160d01b031695945050505050565b6008546040805165ffffffffffff928316815291831660208301527fc565b045403dc03c2eea82b81a0465edad9e2e7fc4d97e11421c209da93d7a93910160405180910390a16008805465ffffffffffff191665ffffffffffff92909216919091179055565b60606113b47f00000000000000000000000000000000000000000000000000000000000000005f6127c7565b60606113b47f000000000000000000000000000000000000000000000000000000000000000060016127c7565b5f61129383611d1d7ff2aad550cf55f045cb27e9c559f9889fdfb6e6cdaa032301d6ea397784ae51d7888888611f5f8a6001600160a01b03165f90815260026020526040902080546001810190915590565b60408051602081019690965285019390935260ff90911660608401526001600160a01b0316608083015260a082015260c001611d02565b5f6113b443612306565b5f33611fac8184612870565b611fd45760405163d9b3955760e01b81526001600160a01b0382166004820152602401610fe6565b5f611fdd61143e565b90508015612049575f61200b836001611ff461132d565b611ffe919061434a565b65ffffffffffff1661159d565b90508181101561204757604051636121770b60e11b81526001600160a01b03841660048201526024810182905260448101839052606401610fe6565b505b610ffb87878787866128f5565b5f80612063858585612b18565b905061129381612bab565b80545f9080156120aa5761209483612087600184614369565b5f91825260209091200190565b54600160301b90046001600160d01b0316611411565b5f9392505050565b6060826120c7576120c282612d03565b610b09565b5080610b09565b8063ffffffff165f036120f65760405163f1cfbf0560e01b81525f6004820152602401610fe6565b6008546040805163ffffffff600160301b9093048316815291831660208301527f7e3f7f0708a84de9203036abaa450dccc85ad5ff52f78c170f3edb55cf5e8828910160405180910390a16008805463ffffffff909216600160301b0269ffffffff00000000000019909216919091179055565b60075460408051918252602082018390527fccb45da8d5717e6c4544694297c4ba5cf151d455c9bb0ed4fc7a38411bc05461910160405180910390a1600755565b604051632394e7a360e21b8152600481018290525f90610b09906001600160a01b037f00000000000000000000000000000000000000000000000000000000000000001690638e539e8c90602401602060405180830381865afa158015612214573d5f803e3d5ffd5b505050506040513d601f19601f820116820180604052508101906122389190614269565b61224184611217565b6064612d2b565b80545f906001600160801b0380821691600160801b9004168103612270576122706031612338565b6001600160801b038181165f908152600185810160205260408220805492905585546fffffffffffffffffffffffffffffffff19169301909116919091179092555090565b5f6001600160d01b038211156122e8576040516306dfcc6560e41b815260d0600482015260248101839052604401610fe6565b5090565b5f806122f9858585612ddb565b915091505b935093915050565b5f65ffffffffffff8211156122e8576040516306dfcc6560e41b81526030600482015260248101839052604401610fe6565b634e487b715f52806020526024601cfd5b5f818152600c602052604081205460ff168161236484610e47565b604051632394e7a360e21b8152600481018290529091505f906001600160a01b037f00000000000000000000000000000000000000000000000000000000000000001690638e539e8c90602401602060405180830381865afa1580156123cc573d5f803e3d5ffd5b505050506040513d601f19601f820116820180604052508101906123f09190614269565b90505f6123fc82612bab565b90505f6064600d5f87600281111561241657612416613907565b600281111561242757612427613907565b815260208101919091526040015f2054612441908461437c565b61244b91906143a7565b90505f805f6124598a6110c6565b91945092509050838361246c83856142d7565b61247691906142d7565b10159a9950505050505050505050565b5f8061249486868686611431565b90506124e2816124a46007611737565b6124ae6006611737565b6124b86002611737565b60016124c56007826143c6565b6124d09060026144bf565b6124da9190614369565b181818611759565b505f818152600460205260409081902080546001600160f81b0316600160f81b179055517f789cf55be980739dad1d0699b93b58e806b51c9d96619bfa8fe0a28abaa7b30c90610e369083815260200190565b5f610b09612541612f2b565b8360405161190160f01b8152600281019290925260228201526042902090565b5f836001600160a01b03163b5f036125bf575f8061257f8585613054565b5090925090505f81600381111561259857612598613907565b1480156125b65750856001600160a01b0316826001600160a01b0316145b92505050611411565b6125ca84848461309d565b9050611411565b5f8581526009602090815260408083206001600160a01b03881684526003810190925282205460ff1615612623576040516371c6af4960e01b81526001600160a01b0387166004820152602401610fe6565b6001600160a01b0386165f9081526003820160205260409020805460ff1916600117905560ff851661266c5783815f015f82825461266191906142d7565b909155506126c29050565b5f1960ff86160161268a5783816001015f82825461266191906142d7565b60011960ff8616016126a95783816002015f82825461266191906142d7565b6040516303599be160e11b815260040160405180910390fd5b509195945050505050565b80545f90819081908082036126eb575f805f935093509350506110e4565b5f6126fb86612087600185614369565b546001955065ffffffffffff81169450600160301b90046001600160d01b031692506110e4915050565b81545f9081816005811115612781575f61273e84612bab565b6127489085614369565b5f8881526020902090915081015465ffffffffffff90811690871610156127715780915061277f565b61277c8160016142d7565b92505b505b5f61278e87878585613173565b905080156127bb576127a587612087600184614369565b54600160301b90046001600160d01b0316610ffb565b5f979650505050505050565b606060ff83146127e1576127da836131d2565b9050610b09565b8180546127ed90613fe9565b80601f016020809104026020016040519081016040528092919081815260200182805461281990613fe9565b80156128645780601f1061283b57610100808354040283529160200191612864565b820191905f5260205f20905b81548152906001019060200180831161284757829003601f168201915b50505050509050610b09565b80515f906034811015612887576001915050610b09565b60131981840101516001600160b01b03198116692370726f706f7365723d60b01b146128b857600192505050610b09565b5f806128c886602a86038661320f565b91509150811580610ffb5750866001600160a01b0316816001600160a01b03161494505050505092915050565b5f6129098686868680519060200120611431565b90508451865114158061291e57508351865114155b8061292857508551155b1561295d57855184518651604051630447b05d60e41b8152600481019390935260248301919091526044820152606401610fe6565b5f81815260046020526040902054600160a01b900465ffffffffffff16156129a6578061298982610e67565b6040516331b75e4d60e01b8152610fe69291905f906004016141fa565b5f6129b860085465ffffffffffff1690565b6129c061132d565b65ffffffffffff166129d291906142d7565b90505f6129ec60085463ffffffff600160301b9091041690565b5f84815260046020526040902080546001600160a01b0319166001600160a01b038716178155909150612a1e83612306565b815465ffffffffffff91909116600160a01b0265ffffffffffff60a01b19909116178155612a4b826132b8565b815463ffffffff91909116600160d01b0263ffffffff60d01b1990911617815588517f7d84a6263ae0d98d3329bd7b46bb4e8d6f98cd35a7adb45c274c8b7fd5ebd5e090859087908c908c906001600160401b03811115612aae57612aae6135f9565b604051908082528060200260200182016040528015612ae157816020015b6060815260200190600190039081612acc5790505b508c89612aee8a826142d7565b8e604051612b04999897969594939291906144cd565b60405180910390a150505095945050505050565b5f7f0000000000000000000000000000000000000000000000000000000000000000604051630748d63560e31b81526001600160a01b038681166004830152602482018690529190911690633a46b1a890604401602060405180830381865afa158015612b87573d5f803e3d5ffd5b505050506040513d601f19601f8201168201806040525081019061140e9190614269565b5f60018211612bb8575090565b816001600160801b8210612bd15760809190911c9060401b5b680100000000000000008210612bec5760409190911c9060201b5b6401000000008210612c035760209190911c9060101b5b620100008210612c185760109190911c9060081b5b6101008210612c2c5760089190911c9060041b5b60108210612c3f5760049190911c9060021b5b60048210612c4b5760011b5b600302600190811c90818581612c6357612c63614393565b048201901c90506001818581612c7b57612c7b614393565b048201901c90506001818581612c9357612c93614393565b048201901c90506001818581612cab57612cab614393565b048201901c90506001818581612cc357612cc3614393565b048201901c90506001818581612cdb57612cdb614393565b048201901c9050612cfa818581612cf457612cf4614393565b04821190565b90039392505050565b805115612d1257805160208201fd5b60405163d6bda27560e01b815260040160405180910390fd5b5f805f612d3886866132e8565b91509150815f03612d5c57838181612d5257612d52614393565b0492505050611411565b818411612d7357612d736003851502601118612338565b5f848688095f868103871696879004966002600389028118808a02820302808a02820302808a02820302808a02820302808a02820302808a02909103029181900381900460010185841190960395909502919093039390930492909217029150509392505050565b82545f9081908015612ed1575f612df787612087600185614369565b805490915065ffffffffffff80821691600160301b90046001600160d01b0316908816821115612e3a57604051632520601d60e01b815260040160405180910390fd5b8765ffffffffffff168265ffffffffffff1603612e7357825465ffffffffffff16600160301b6001600160d01b03891602178355612ec3565b6040805180820190915265ffffffffffff808a1682526001600160d01b03808a1660208085019182528d54600181018f555f8f81529190912094519151909216600160301b029216919091179101555b94508593506122fe92505050565b50506040805180820190915265ffffffffffff80851682526001600160d01b0380851660208085019182528854600181018a555f8a815291822095519251909316600160301b0291909316179201919091559050816122fe565b5f306001600160a01b037f000000000000000000000000000000000000000000000000000000000000000016148015612f8357507f000000000000000000000000000000000000000000000000000000000000000046145b15612fad57507f000000000000000000000000000000000000000000000000000000000000000090565b6113b4604080517f8b73c3c69bb8fe3d512ecc4cf759cc79239f7b179b0ffacaa9a75d522b39400f60208201527f0000000000000000000000000000000000000000000000000000000000000000918101919091527f000000000000000000000000000000000000000000000000000000000000000060608201524660808201523060a08201525f9060c00160405160208183030381529060405280519060200120905090565b5f805f835160410361308b576020840151604085015160608601515f1a61307d88828585613304565b955095509550505050613096565b505081515f91506002905b9250925092565b5f805f856001600160a01b031685856040516024016130bd9291906145a2565b60408051601f198184030181529181526020820180516001600160e01b0316630b135d3f60e11b179052516130f291906145ba565b5f60405180830381855afa9150503d805f811461312a576040519150601f19603f3d011682016040523d82523d5f602084013e61312f565b606091505b509150915081801561314357506020815110155b801561127a57508051630b135d3f60e11b906131689083016020908101908401614269565b149695505050505050565b5f5b818310156131ca575f61318884846133cc565b5f8781526020902090915065ffffffffffff86169082015465ffffffffffff1611156131b6578092506131c4565b6131c18160016142d7565b93505b50613175565b509392505050565b60605f6131de836133e6565b6040805160208082528183019092529192505f91906020820181803683375050509182525060208101929092525090565b5f80845183118061321f57508284115b1561322e57505f9050806122fe565b5f61323a8560016142d7565b84118015613262575061060f60f31b6132568787016020015190565b6001600160f01b031916145b90505f613272821515600261437c565b61327d9060286142d7565b90508061328a8787614369565b036132ab575f8061329c89898961340d565b90965094506122fe9350505050565b5f809350935050506122fe565b5f63ffffffff8211156122e8576040516306dfcc6560e41b81526020600482015260248101839052604401610fe6565b5f805f1983850993909202808410938190039390930393915050565b5f80807f7fffffffffffffffffffffffffffffff5d576e7357a4501ddfe92f46681b20a084111561333d57505f915060039050826133c2565b604080515f808252602082018084528a905260ff891692820192909252606081018790526080810186905260019060a0016020604051602081039080840390855afa15801561338e573d5f803e3d5ffd5b5050604051601f1901519150506001600160a01b0381166133b957505f9250600191508290506133c2565b92505f91508190505b9450945094915050565b5f6133da60028484186143a7565b611411908484166142d7565b5f60ff8216601f811115610b0957604051632cd44ac360e21b815260040160405180910390fd5b5f80848161341c8660016142d7565b85118015613444575061060f60f31b6134388388016020015190565b6001600160f01b031916145b90505f613454821515600261437c565b90505f80613462838a6142d7565b90505b878110156134bd575f61348361347e8784016020015190565b6134ce565b9050600f8160ff1611156134a2575f80975097505050505050506122fe565b6134ad60108461437c565b60ff909116019150600101613465565b506001999098509650505050505050565b5f60f882901c602f811180156134e75750603a8160ff16105b156134f557602f1901610b09565b60608160ff1611801561350b575060678160ff16105b156135195760561901610b09565b60408160ff1611801561352f575060478160ff16105b1561353d5760361901610b09565b5060ff92915050565b5f60208284031215613556575f80fd5b81356001600160e01b031981168114611411575f80fd5b5f6020828403121561357d575f80fd5b5035919050565b5f5b8381101561359e578181015183820152602001613586565b50505f910152565b5f81518084526135bd816020860160208601613584565b601f01601f19169290920160200192915050565b602081525f61141160208301846135a6565b80356001600160a01b03811681146110c1575f80fd5b634e487b7160e01b5f52604160045260245ffd5b604051601f8201601f191681016001600160401b0381118282101715613635576136356135f9565b604052919050565b5f6001600160401b03821115613655576136556135f9565b50601f01601f191660200190565b5f82601f830112613672575f80fd5b81356136856136808261363d565b61360d565b818152846020838601011115613699575f80fd5b816020850160208301375f918101602001919091529392505050565b5f805f80608085870312156136c8575f80fd5b6136d1856135e3565b93506136df602086016135e3565b92506040850135915060608501356001600160401b03811115613700575f80fd5b61370c87828801613663565b91505092959194509250565b5f6001600160401b03821115613730576137306135f9565b5060051b60200190565b5f82601f830112613749575f80fd5b8135602061375961368083613718565b8083825260208201915060208460051b87010193508684111561377a575f80fd5b602086015b8481101561379d57613790816135e3565b835291830191830161377f565b509695505050505050565b5f82601f8301126137b7575f80fd5b813560206137c761368083613718565b8083825260208201915060208460051b8701019350868411156137e8575f80fd5b602086015b8481101561379d57803583529183019183016137ed565b5f82601f830112613813575f80fd5b8135602061382361368083613718565b82815260059290921b84018101918181019086841115613841575f80fd5b8286015b8481101561379d5780356001600160401b03811115613862575f80fd5b6138708986838b0101613663565b845250918301918301613845565b5f805f8060808587031215613891575f80fd5b84356001600160401b03808211156138a7575f80fd5b6138b38883890161373a565b955060208701359150808211156138c8575f80fd5b6138d4888389016137a8565b945060408701359150808211156138e9575f80fd5b506138f687828801613804565b949793965093946060013593505050565b634e487b7160e01b5f52602160045260245ffd5b6008811061392b5761392b613907565b9052565b60208101610b09828461391b565b5f806040838503121561394e575f80fd5b8235915061395e602084016135e3565b90509250929050565b803560ff811681146110c1575f80fd5b5f8060408385031215613988575f80fd5b8235915061395e60208401613967565b5f8083601f8401126139a8575f80fd5b5081356001600160401b038111156139be575f80fd5b6020830191508360208285010111156139d5575f80fd5b9250929050565b5f805f805f805f60c0888a0312156139f2575f80fd5b87359650613a0260208901613967565b9550613a10604089016135e3565b945060608801356001600160401b0380821115613a2b575f80fd5b613a378b838c01613998565b909650945060808a0135915080821115613a4f575f80fd5b613a5b8b838c01613663565b935060a08a0135915080821115613a70575f80fd5b50613a7d8a828b01613663565b91505092959891949750929550565b5f805f805f60808688031215613aa0575f80fd5b85359450613ab060208701613967565b935060408601356001600160401b0380821115613acb575f80fd5b613ad789838a01613998565b90955093506060880135915080821115613aef575f80fd5b50613afc88828901613663565b9150509295509295909350565b65ffffffffffff81168114610b20575f80fd5b5f60208284031215613b2c575f80fd5b813561141181613b09565b5f805f8060608587031215613b4a575f80fd5b84359350613b5a60208601613967565b925060408501356001600160401b03811115613b74575f80fd5b613b8087828801613998565b95989497509550505050565b5f805f8060808587031215613b9f575f80fd5b84356001600160401b0380821115613bb5575f80fd5b613bc18883890161373a565b95506020870135915080821115613bd6575f80fd5b613be2888389016137a8565b94506040870135915080821115613bf7575f80fd5b613c0388838901613804565b93506060870135915080821115613c18575f80fd5b5061370c87828801613663565b5f60208284031215613c35575f80fd5b611411826135e3565b5f815180845260208085019450602084015f5b83811015613c6d57815187529582019590820190600101613c51565b509495945050505050565b60ff60f81b8816815260e060208201525f613c9660e08301896135a6565b8281036040840152613ca881896135a6565b606084018890526001600160a01b038716608085015260a0840186905283810360c08501529050613cd98185613c3e565b9a9950505050505050505050565b5f805f8060808587031215613cfa575f80fd5b84359350613d0a60208601613967565b9250613d18604086016135e3565b915060608501356001600160401b03811115613700575f80fd5b8035600381106110c1575f80fd5b5f805f805f60a08688031215613d54575f80fd5b85356001600160401b0380821115613d6a575f80fd5b613d7689838a0161373a565b96506020880135915080821115613d8b575f80fd5b613d9789838a016137a8565b95506040880135915080821115613dac575f80fd5b613db889838a01613804565b94506060880135915080821115613dcd575f80fd5b50613dda88828901613663565b925050613de960808701613d32565b90509295509295909350565b5f805f60608486031215613e07575f80fd5b613e10846135e3565b92506020840135915060408401356001600160401b03811115613e31575f80fd5b613e3d86828701613663565b9150509250925092565b5f60208284031215613e57575f80fd5b61141182613d32565b6020810160038310613e7457613e74613907565b91905290565b5f805f805f60a08688031215613e8e575f80fd5b613e97866135e3565b9450613ea5602087016135e3565b935060408601356001600160401b0380821115613ec0575f80fd5b613ecc89838a016137a8565b94506060880135915080821115613ee1575f80fd5b613eed89838a016137a8565b93506080880135915080821115613aef575f80fd5b5f805f8060608587031215613f15575f80fd5b613f1e856135e3565b93506020850135925060408501356001600160401b03811115613b74575f80fd5b5f60208284031215613f4f575f80fd5b813563ffffffff81168114611411575f80fd5b5f8060408385031215613f73575f80fd5b613f7c836135e3565b946020939093013593505050565b5f805f805f60a08688031215613f9e575f80fd5b613fa7866135e3565b9450613fb5602087016135e3565b9350604086013592506060860135915060808601356001600160401b03811115613fdd575f80fd5b613afc88828901613663565b600181811c90821680613ffd57607f821691505b60208210810361401b57634e487b7160e01b5f52602260045260245ffd5b50919050565b634e487b7160e01b5f52603260045260245ffd5b5f60208284031215614045575f80fd5b81518015158114611411575f80fd5b5f60208284031215614064575f80fd5b81516001600160401b03811115614079575f80fd5b8201601f81018413614089575f80fd5b80516140976136808261363d565b8181528560208385010111156140ab575f80fd5b611293826020830160208601613584565b5f602082840312156140cc575f80fd5b815161141181613b09565b634e487b7160e01b5f52601160045260245ffd5b65ffffffffffff81811683821601908082111561410a5761410a6140d7565b5092915050565b818382375f9101908152919050565b5f815180845260208085019450602084015f5b83811015613c6d5781516001600160a01b031687529582019590820190600101614133565b5f8282518085526020808601955060208260051b840101602086015f5b848110156141a357601f198684030189526141918383516135a6565b98840198925090830190600101614175565b5090979650505050505050565b608081525f6141c26080830187614120565b82810360208401526141d48187613c3e565b905082810360408401526141e88186614158565b91505082606083015295945050505050565b8381526060810161420e602083018561391b565b826040830152949350505050565b60a081525f61422e60a0830188614120565b82810360208401526142408188613c3e565b905082810360408401526142548187614158565b60608401959095525050608001529392505050565b5f60208284031215614279575f80fd5b5051919050565b60c081525f61429260c0830189614120565b82810360208401526142a48189613c3e565b905082810360408401526142b88188614158565b60608401969096525050608081019290925260a0909101529392505050565b80820180821115610b0957610b096140d7565b84815260ff84166020820152826040820152608060608201525f61127a60808301846135a6565b85815260ff8516602082015283604082015260a060608201525f61433860a08301856135a6565b82810360808401526111c381856135a6565b65ffffffffffff82811682821603908082111561410a5761410a6140d7565b81810381811115610b0957610b096140d7565b8082028115828204841417610b0957610b096140d7565b634e487b7160e01b5f52601260045260245ffd5b5f826143c157634e487b7160e01b5f52601260045260245ffd5b500490565b60ff8181168382160190811115610b0957610b096140d7565b600181815b8085111561441957815f19048211156143ff576143ff6140d7565b8085161561440c57918102915b93841c93908002906143e4565b509250929050565b5f8261442f57506001610b09565b8161443b57505f610b09565b8160018114614451576002811461445b57614477565b6001915050610b09565b60ff84111561446c5761446c6140d7565b50506001821b610b09565b5060208310610133831016604e8410600b841016171561449a575081810a610b09565b6144a483836143df565b805f19048211156144b7576144b76140d7565b029392505050565b5f61141160ff841683614421565b5f6101208b8352602060018060a01b038c16818501528160408501526144f58285018c614120565b91508382036060850152614509828b613c3e565b915083820360808501528189518084528284019150828160051b850101838c015f5b8381101561455957601f198784030185526145478383516135a6565b9486019492509085019060010161452b565b505086810360a088015261456d818c614158565b9450505050508560c08401528460e084015282810361010084015261459281856135a6565b9c9b505050505050505050505050565b828152604060208201525f61140e60408301846135a6565b5f82516145cb818460208701613584565b919091019291505056fea26469706673582212208f815afcb2489bf7896cb47c6ba57847b326eae97501bcdf7277127e51c3951664736f6c63430008180033",
  "linkReferences": {},
  "deployedLinkReferences": {}
}