{
  "_format": "hh-sol-artifact-1",
  "contractName": "GovernanceToken",
  "sourceName": "contracts/GovernanceToken.sol",
  "abi": [
    {
      "inputs": [
        {
          "internalType": "string",
          "name": "_name",
          "type": "string"
        },
        {
          "internalType": "string",
          "name": "_symbol",
          "type": "string"
        }
      ],
      "stateMutability": "nonpayable",
      "type": "constructor"
    },
    {
      "inputs": [],
      "name": "CheckpointUnorderedInsertion",
      "type": "error"
    },
    {
      "inputs": [],
      "name": "ECDSAInvalidSignature",
      "type": "error"
    },
    {
      "inputs": [
        {
          "internalType": "uint256",
          "name": "length",
          "type": "uint256"
        }
      ],
      "name": "ECDSAInvalidSignatureLength",
      "type": "error"
    },
    {
      "inputs": [
        {
          "internalType": "bytes32",
          "name": "s",
          "type": "bytes32"
        }
      ],
      "name": "ECDSAInvalidSignatureS",
      "type": "error"
    },
    {
      "inputs": [
        {
          "internalType": "uint256",
          "name": "increasedSupply",
          "type": "uint256"
        },
        {
          "internalType": "uint256",
          "name": "cap",
          "type": "uint256"
        }
      ],
      "name": "ERC20ExceededSafeSupply",
      "type": "error"
    },
    {
      "inputs": [
        {
          "internalType": "address",
          "name": "spender",
          "type": "address"
        },
        {
          "internalType": "uint256",
          "name": "allowance",
          "type": "uint256"
        },
        {
          "internalType": "uint256",
          "name": "needed",
          "type": "uint256"
        }
      ],
      "name": "ERC20InsufficientAllowance",
      "type": "error"
    },
    {
      "inputs": [
        {
          "internalType": "address",
          "name": "sender",
          "type": "address"
        },
        {
          "internalType": "uint256",
          "name": "balance",
          "type": "uint256"
        },
        {
          "internalType": "uint256",
          "name": "needed",
          "type": "uint256"
        }
      ],
      "name": "ERC20InsufficientBalance",
      "type": "error"
    },
    {
      "inputs": [
        {
          "internalType": "address",
          "name": "approver",
          "type": "address"
        }
      ],
      "name": "ERC20InvalidApprover",
      "type": "error"
    },
    {
      "inputs": [
        {
          "internalType": "address",
          "name": "receiver",
          "type": "address"
        }
      ],
      "name": "ERC20InvalidReceiver",
      "type": "error"
    },
    {
      "inputs": [
        {
          "internalType": "address",
          "name": "sender",
          "type": "address"
        }
      ],
      "name": "ERC20InvalidSender",
      "type": "error"
    },
    {
      "inputs": [
        {
          "internalType": "address",
          "name": "spender",
          "type": "address"
        }
      ],
      "name": "ERC20InvalidSpender",
      "type": "error"
    },
    {
      "inputs": [
        {
          "internalType": "uint256",
          "name": "deadline",
          "type": "uint256"
        }
      ],
      "name": "ERC2612ExpiredSignature",
      "type": "error"
    },
    {
      "inputs": [
        {
          "internalType": "address",
          "name": "signer",
          "type": "address"
        },
        {
          "internalType": "address",
          "name": "owner",
          "type": "address"
        }
      ],
      "name": "ERC2612InvalidSigner",
      "type": "error"
    },
    {
      "inputs": [
        {
          "internalType": "uint256",
          "name": "timepoint",
          "type": "uint256"
        },
        {
          "internalType": "uint48",
          "name": "clock",
          "type": "uint48"
        }
      ],
      "name": "ERC5805FutureLookup",
      "type": "error"
    },
    {
      "inputs": [],
      "name": "ERC6372InconsistentClock",
      "type": "error"
    },
    {
      "inputs": [
        {
          "internalType": "address",
          "name": "account",
          "type": "address"
        },
        {
          "internalType": "uint256",
          "name": "currentNonce",
          "type": "uint256"
        }
      ],
      "name": "InvalidAccountNonce",
      "type": "error"
    },
    {
      "inputs": [],
      "name": "InvalidShortString",
      "type": "error"
    },
    {
      "inputs": [
        {
          "internalType": "address",
          "name": "owner",
          "type": "address"
        }
      ],
      "name": "OwnableInvalidOwner",
      "type": "error"
    },
    {
      "inputs": [
        {
          "internalType": "address",
          "name": "account",
          "type": "address"
        }
      ],
      "name": "OwnableUnauthorizedAccount",
      "type": "error"
    },
    {
      "inputs": [
        {
          "internalType": "uint8",
          "name": "bits",
          "type": "uint8"
        },
        {
          "internalType": "uint256",
          "name": "value",
          "type": "uint256"
        }
      ],
      "name": "SafeCastOverflowedUintDowncast",
      "type": "error"
    },
    {
      "inputs": [
        {
          "internalType": "string",
          "name": "str",
          "type": "string"
        }
      ],
      "name": "StringTooLong",
      "type": "error"
    },
    {
      "inputs": [
        {
          "internalType": "uint256",
          "name": "expiry",
          "type": "uint256"
        }
      ],
      "name": "VotesExpiredSignature",
      "type": "error"
    },
    {
      "anonymous": false,
      "inputs": [
        {
          "indexed": true,
          "internalType": "address",
          "name": "owner",
          "type": "address"
        },
        {
          "indexed": true,
          "internalType": "address",
          "name": "spender",
          "type": "address"
        },
        {
          "indexed": false,
          "internalType": "uint256",
          "name": "value",
          "type": "uint256"
        }
      ],
      "name": "Approval",
      "type": "event"
    },
    {
      "anonymous": false,
      "inputs": [
        {
          "indexed": true,
          "internalType": "address",
          "name": "delegator",
          "type": "address"
        },
        {
          "indexed": true,
          "internalType": "address",
          "name": "fromDelegate",
          "type": "address"
        },
        {
          "indexed": true,
          "internalType": "address",
          "name": "toDelegate",
          "type": "address"
        }
      ],
      "name": "DelegateChanged",
      "type": "event"
    },
    {
      "anonymous": false,
      "inputs": [
        {
          "indexed": true,
          "internalType": "address",
          "name": "delegate",
          "type": "address"
        },
        {
          "indexed": false,
          "internalType": "uint256",
          "name": "previousVotes",
          "type": "uint256"
        },
        {
          "indexed": false,
          "internalType": "uint256",
          "name": "newVotes",
          "type": "uint256"
        }
      ],
      "name": "DelegateVotesChanged",
      "type": "event"
    },
    {
      "anonymous": false,
      "inputs": [
        {
          "indexed": true,
          "internalType": "address",
          "name": "user",
          "type": "address"
        },
        {
          "indexed": false,
          "internalType": "uint256",
          "name": "amount",
          "type": "uint256"
        }
      ],
      "name": "Deposit",
      "type": "event"
    },
    {
      "anonymous": false,
      "inputs": [],
      "name": "EIP712DomainChanged",
      "type": "event"
    },
    {
      "anonymous": false,
      "inputs": [
        {
          "indexed": true,
          "internalType": "address",
          "name": "previousOwner",
          "type": "address"
        },
        {
          "indexed": true,
          "internalType": "address",
          "name": "newOwner",
          "type": "address"
        }
      ],
      "name": "OwnershipTransferred",
      "type": "event"
    },
    {
      "anonymous": false,
      "inputs": [
        {
          "indexed": true,
          "internalType": "address",
          "name": "from",
          "type": "address"
        },
        {
          "indexed": true,
          "internalType": "address",
          "name": "to",
          "type": "address"
        },
        {
          "indexed": false,
          "internalType": "uint256",
          "name": "value",
          "type": "uint256"
        }
      ],
      "name": "Transfer",
      "type": "event"
    },
    {
      "anonymous": false,
      "inputs": [
        {
          "indexed": false,
          "internalType": "address",
          "name": "oldTreasury",
          "type": "address"
        },
        {
          "indexed": false,
          "internalType": "address",
          "name": "newTreasury",
          "type": "address"
        }
      ],
      "name": "TreasuryUpdated",
      "type": "event"
    },
    {
      "anonymous": false,
      "inputs": [
        {
          "indexed": true,
          "internalType": "address",
          "name": "user",
          "type": "address"
        },
        {
          "indexed": false,
          "internalType": "uint256",
          "name": "amount",
          "type": "uint256"
        }
      ],
      "name": "Withdraw",
      "type": "event"
    },
    {
      "inputs": [],
      "name": "CLOCK_MODE",
      "outputs": [
        {
          "internalType": "string",
          "name": "",
          "type": "string"
        }
      ],
      "stateMutability": "view",
      "type": "function"
    },
    {
      "inputs": [],
      "name": "DOMAIN_SEPARATOR",
      "outputs": [
        {
          "internalType": "bytes32",
          "name": "",
          "type": "bytes32"
        }
      ],
      "stateMutability": "view",
      "type": "function"
    },
    {
      "inputs": [
        {
          "internalType": "address",
          "name": "owner",
          "type": "address"
        },
        {
          "internalType": "address",
          "name": "spender",
          "type": "address"
        }
      ],
      "name": "allowance",
      "outputs": [
        {
          "internalType": "uint256",
          "name": "",
          "type": "uint256"
        }
      ],
      "stateMutability": "view",
      "type": "function"
    },
    {
      "inputs": [
        {
          "internalType": "address",
          "name": "spender",
          "type": "address"
        },
        {
          "internalType": "uint256",
          "name": "value",
          "type": "uint256"
        }
      ],
      "name": "approve",
      "outputs": [
        {
          "internalType": "bool",
          "name": "",
          "type": "bool"
        }
      ],
      "stateMutability": "nonpayable",
      "type": "function"
    },
    {
      "inputs": [
        {
          "internalType": "address",
          "name": "account",
          "type": "address"
        }
      ],
      "name": "balanceOf",
      "outputs": [
        {
          "internalType": "uint256",
          "name": "",
          "type": "uint256"
        }
      ],
      "stateMutability": "view",
      "type": "function"
    },
    {
      "inputs": [
        {
          "internalType": "address",
          "name": "account",
          "type": "address"
        },
        {
          "internalType": "uint32",
          "name": "pos",
          "type": "uint32"
        }
      ],
      "name": "checkpoints",
      "outputs": [
        {
          "components": [
            {
              "internalType": "uint48",
              "name": "_key",
              "type": "uint48"
            },
            {
              "internalType": "uint208",
              "name": "_value",
              "type": "uint208"
            }
          ],
          "internalType": "struct Checkpoints.Checkpoint208",
          "name": "",
          "type": "tuple"
        }
      ],
      "stateMutability": "view",
      "type": "function"
    },
    {
      "inputs": [],
      "name": "clock",
      "outputs": [
        {
          "internalType": "uint48",
          "name": "",
          "type": "uint48"
        }
      ],
      "stateMutability": "view",
      "type": "function"
    },
    {
      "inputs": [],
      "name": "decimals",
      "outputs": [
        {
          "internalType": "uint8",
          "name": "",
          "type": "uint8"
        }
      ],
      "stateMutability": "view",
      "type": "function"
    },
    {
      "inputs": [
        {
          "internalType": "address",
          "name": "delegatee",
          "type": "address"
        }
      ],
      "name": "delegate",
      "outputs": [],
      "stateMutability": "nonpayable",
      "type": "function"
    },
    {
      "inputs": [
        {
          "internalType": "address",
          "name": "delegatee",
          "type": "address"
        },
        {
          "internalType": "uint256",
          "name": "nonce",
          "type": "uint256"
        },
        {
          "internalType": "uint256",
          "name": "expiry",
          "type": "uint256"
        },
        {
          "internalType": "uint8",
          "name": "v",
          "type": "uint8"
        },
        {
          "internalType": "bytes32",
          "name": "r",
          "type": "bytes32"
        },
        {
          "internalType": "bytes32",
          "name": "s",
          "type": "bytes32"
        }
      ],
      "name": "delegateBySig",
      "outputs": [],
      "stateMutability": "nonpayable",
      "type": "function"
    },
    {
      "inputs": [
        {
          "internalType": "address",
          "name": "account",
          "type": "address"
        }
      ],
      "name": "delegates",
      "outputs": [
        {
          "internalType": "address",
          "name": "",
          "type": "address"
        }
      ],
      "stateMutability": "view",
      "type": "function"
    },
    {
      "inputs": [],
      "name": "deposit",
      "outputs": [],
      "stateMutability": "payable",
      "type": "function"
    },
    {
      "inputs": [],
      "name": "eip712Domain",
      "outputs": [
        {
          "internalType": "bytes1",
          "name": "fields",
          "type": "bytes1"
        },
        {
          "internalType": "string",
          "name": "name",
          "type": "string"
        },
        {
          "internalType": "string",
          "name": "version",
          "type": "string"
        },
        {
          "internalType": "uint256",
          "name": "chainId",
          "type": "uint256"
        },
        {
          "internalType": "address",
          "name": "verifyingContract",
          "type": "address"
        },
        {
          "internalType": "bytes32",
          "name": "salt",
          "type": "bytes32"
        },
        {
          "internalType": "uint256[]",
          "name": "extensions",
          "type": "uint256[]"
        }
      ],
      "stateMutability": "view",
      "type": "function"
    },
    {
      "inputs": [
        {
          "internalType": "uint256",
          "name": "timepoint",
          "type": "uint256"
        }
      ],
      "name": "getPastTotalSupply",
      "outputs": [
        {
          "internalType": "uint256",
          "name": "",
          "type": "uint256"
        }
      ],
      "stateMutability": "view",
      "type": "function"
    },
    {
      "inputs": [
        {
          "internalType": "address",
          "name": "account",
          "type": "address"
        },
        {
          "internalType": "uint256",
          "name": "timepoint",
          "type": "uint256"
        }
      ],
      "name": "getPastVotes",
      "outputs": [
        {
          "internalType": "uint256",
          "name": "",
          "type": "uint256"
        }
      ],
      "stateMutability": "view",
      "type": "function"
    },
    {
      "inputs": [
        {
          "internalType": "address",
          "name": "account",
          "type": "address"
        }
      ],
      "name": "getVotes",
      "outputs": [
        {
          "internalType": "uint256",
          "name": "",
          "type": "uint256"
        }
      ],
      "stateMutability": "view",
      "type": "function"
    },
    {
      "inputs": [],
      "name": "name",
      "outputs": [
        {
          "internalType": "string",
          "name": "",
          "type": "string"
        }
      ],
      "stateMutability": "view",
      "type": "function"
    },
    {
      "inputs": [
        {
          "internalType": "address",
          "name": "owner",
          "type": "address"
        }
      ],
      "name": "nonces",
      "outputs": [
        {
          "internalType": "uint256",
          "name": "",
          "type": "uint256"
        }
      ],
      "stateMutability": "view",
      "type": "function"
    },
    {
      "inputs": [
        {
          "internalType": "address",
          "name": "account",
          "type": "address"
        }
      ],
      "name": "numCheckpoints",
      "outputs": [
        {
          "internalType": "uint32",
          "name": "",
          "type": "uint32"
        }
      ],
      "stateMutability": "view",
      "type": "function"
    },
    {
      "inputs": [],
      "name": "owner",
      "outputs": [
        {
          "internalType": "address",
          "name": "",
          "type": "address"
        }
      ],
      "stateMutability": "view",
      "type": "function"
    },
    {
      "inputs": [
        {
          "internalType": "address",
          "name": "owner",
          "type": "address"
        },
        {
          "internalType": "address",
          "name": "spender",
          "type": "address"
        },
        {
          "internalType": "uint256",
          "name": "value",
          "type": "uint256"
        },
        {
          "internalType": "uint256",
          "name": "deadline",
          "type": "uint256"
        },
        {
          "internalType": "uint8",
          "name": "v",
          "type": "uint8"
        },
        {
          "internalType": "bytes32",
          "name": "r",
          "type": "bytes32"
        },
        {
          "internalType": "bytes32",
          "name": "s",
          "type": "bytes32"
        }
      ],
      "name": "permit",
      "outputs": [],
      "stateMutability": "nonpayable",
      "type": "function"
    },
    {
      "inputs": [],
      "name": "renounceOwnership",
      "outputs": [],
      "stateMutability": "nonpayable",
      "type": "function"
    },
    {
      "inputs": [
        {
          "internalType": "address",
          "name": "_treasury",
          "type": "address"
        }
      ],
      "name": "setTreasury",
      "outputs": [],
      "stateMutability": "nonpayable",
      "type": "function"
    },
    {
      "inputs": [],
      "name": "symbol",
      "outputs": [
        {
          "internalType": "string",
          "name": "",
          "type": "string"
        }
      ],
      "stateMutability": "view",
      "type": "function"
    },
    {
      "inputs": [],
      "name": "totalSupply",
      "outputs": [
        {
          "internalType": "uint256",
          "name": "",
          "type": "uint256"
        }
      ],
      "stateMutability": "view",
      "type": "function"
    },
    {
      "inputs": [
        {
          "internalType": "address",
          "name": "to",
          "type": "address"
        },
        {
          "internalType": "uint256",
          "name": "value",
          "type": "uint256"
        }
      ],
      "name": "transfer",
      "outputs": [
        {
          "internalType": "bool",
          "name": "",
          "type": "bool"
        }
      ],
      "stateMutability": "nonpayable",
      "type": "function"
    },
    {
      "inputs": [
        {
          "internalType": "address",
          "name": "from",
          "type": "address"
        },
        {
          "internalType": "address",
          "name": "to",
          "type": "address"
        },
        {
          "internalType": "uint256",
          "name": "value",
          "type": "uint256"
        }
      ],
      "name": "transferFrom",
      "outputs": [
        {
          "internalType": "bool",
          "name": "",
          "type": "bool"
        }
      ],
      "stateMutability": "nonpayable",
      "type": "function"
    },
    {
      "inputs": [
        {
          "internalType": "address",
          "name": "newOwner",
          "type": "address"
        }
      ],
      "name": "transferOwnership",
      "outputs": [],
      "stateMutability": "nonpayable",
      "type": "function"
    },
    {
      "inputs": [],
      "name": "treasury",
      "outputs": [
        {
          "internalType": "contract ITreasury",
          "name": "",
          "type": "address"
        }
      ],
      "stateMutability": "view",
      "type": "function"
    },
    {
      "inputs": [
        {
          "internalType": "uint256",
          "name": "amount",
          "type": "uint256"
        }
      ],
      "name": "withdraw",
      "outputs": [],
      "stateMutability": "nonpayable",
      "type": "function"
    }
  ],
  "bytecode": "0x61016060405234801562000011575f80fd5b50604051620028e9380380620028e9833981016040819052620000349162000301565b338280604051806040016040528060018152602001603160f81b81525085858160039081620000649190620003f1565b506004620000738282620003f1565b50620000859150839050600562000170565b610120526200009681600662000170565b61014052815160208084019190912060e052815190820120610100524660a0526200012360e05161010051604080517f8b73c3c69bb8fe3d512ecc4cf759cc79239f7b179b0ffacaa9a75d522b39400f60208201529081019290925260608201524660808201523060a08201525f9060c00160405160208183030381529060405280519060200120905090565b60805250503060c052506001600160a01b0381166200015c57604051631e4fbdf760e01b81525f60048201526024015b60405180910390fd5b6200016781620001a8565b50505062000515565b5f6020835110156200018f576200018783620001f9565b9050620001a2565b816200019c8482620003f1565b5060ff90505b92915050565b600b80546001600160a01b038381166001600160a01b0319831681179093556040519116919082907f8be0079c531659141344cd1fd0a4f28419497f9722a3daafe3b4186f6b6457e0905f90a35050565b5f80829050601f8151111562000226578260405163305a27a960e01b8152600401620001539190620004bd565b80516200023382620004f1565b179392505050565b634e487b7160e01b5f52604160045260245ffd5b5f5b838110156200026b57818101518382015260200162000251565b50505f910152565b5f82601f83011262000283575f80fd5b81516001600160401b0380821115620002a057620002a06200023b565b604051601f8301601f19908116603f01168101908282118183101715620002cb57620002cb6200023b565b81604052838152866020858801011115620002e4575f80fd5b620002f78460208301602089016200024f565b9695505050505050565b5f806040838503121562000313575f80fd5b82516001600160401b03808211156200032a575f80fd5b620003388683870162000273565b935060208501519150808211156200034e575f80fd5b506200035d8582860162000273565b9150509250929050565b600181811c908216806200037c57607f821691505b6020821081036200039b57634e487b7160e01b5f52602260045260245ffd5b50919050565b601f821115620003ec57805f5260205f20601f840160051c81016020851015620003c85750805b601f840160051c820191505b81811015620003e9575f8155600101620003d4565b50505b505050565b81516001600160401b038111156200040d576200040d6200023b565b62000425816200041e845462000367565b84620003a1565b602080601f8311600181146200045b575f8415620004435750858301515b5f19600386901b1c1916600185901b178555620004b5565b5f85815260208120601f198616915b828110156200048b578886015182559484019460019091019084016200046a565b5085821015620004a957878501515f19600388901b60f8161c191681555b505060018460011b0185555b505050505050565b602081525f8251806020840152620004dd8160408501602087016200024f565b601f01601f19169190910160400192915050565b805160208083015191908110156200039b575f1960209190910360031b1b16919050565b60805160a05160c05160e051610100516101205161014051612382620005675f395f61128e01525f61126101525f610fe901525f610fc101525f610f1c01525f610f4601525f610f7001526123825ff3fe6080604052600436106101c5575f3560e01c80637ecebe00116100f2578063a9059cbb11610092578063dd62ed3e11610062578063dd62ed3e14610549578063f0f442601461058d578063f1127ed8146105ac578063f2fde38b146105f7575f80fd5b8063a9059cbb146104e4578063c3cda52014610503578063d0e30db014610522578063d505accf1461052a575f80fd5b80638e539e8c116100cd5780638e539e8c1461047057806391ddadf41461048f57806395d89b41146104b15780639ab24eb0146104c5575f80fd5b80637ecebe001461040d57806384b0196e1461042c5780638da5cb5b14610453575f80fd5b80633a46b1a81161016857806361d027b31161013857806361d027b3146103725780636fcfff451461039157806370a08231146103c5578063715018a6146103f9575f80fd5b80633a46b1a8146102af5780634bf5d7e9146102ce578063587cde1e146103045780635c19a95c14610353575f80fd5b806323b872dd116101a357806323b872dd146102405780632e1a7d4d1461025f578063313ce567146102805780633644e5151461029b575f80fd5b806306fdde03146101c9578063095ea7b3146101f357806318160ddd14610222575b5f80fd5b3480156101d4575f80fd5b506101dd610616565b6040516101ea9190611fac565b60405180910390f35b3480156101fe575f80fd5b5061021261020d366004611fd9565b6106a6565b60405190151581526020016101ea565b34801561022d575f80fd5b506002545b6040519081526020016101ea565b34801561024b575f80fd5b5061021261025a366004612001565b6106bf565b34801561026a575f80fd5b5061027e61027936600461203a565b6106e2565b005b34801561028b575f80fd5b50604051601281526020016101ea565b3480156102a6575f80fd5b50610232610877565b3480156102ba575f80fd5b506102326102c9366004611fd9565b610885565b3480156102d9575f80fd5b5060408051808201909152600e81526d06d6f64653d74696d657374616d760941b60208201526101dd565b34801561030f575f80fd5b5061033b61031e366004612051565b6001600160a01b039081165f908152600860205260409020541690565b6040516001600160a01b0390911681526020016101ea565b34801561035e575f80fd5b5061027e61036d366004612051565b6108bf565b34801561037d575f80fd5b50600c5461033b906001600160a01b031681565b34801561039c575f80fd5b506103b06103ab366004612051565b6108ce565b60405163ffffffff90911681526020016101ea565b3480156103d0575f80fd5b506102326103df366004612051565b6001600160a01b03165f9081526020819052604090205490565b348015610404575f80fd5b5061027e6108d8565b348015610418575f80fd5b50610232610427366004612051565b6108eb565b348015610437575f80fd5b506104406108f5565b6040516101ea979695949392919061206a565b34801561045e575f80fd5b50600b546001600160a01b031661033b565b34801561047b575f80fd5b5061023261048a36600461203a565b610937565b34801561049a575f80fd5b5060405165ffffffffffff421681526020016101ea565b3480156104bc575f80fd5b506101dd61095b565b3480156104d0575f80fd5b506102326104df366004612051565b61096a565b3480156104ef575f80fd5b506102126104fe366004611fd9565b61098a565b34801561050e575f80fd5b5061027e61051d366004612111565b610997565b61027e610a53565b348015610535575f80fd5b5061027e610544366004612165565b610b93565b348015610554575f80fd5b506102326105633660046121ca565b6001600160a01b039182165f90815260016020908152604080832093909416825291909152205490565b348015610598575f80fd5b5061027e6105a7366004612051565b610cc9565b3480156105b7575f80fd5b506105cb6105c63660046121fb565b610d90565b60408051825165ffffffffffff1681526020928301516001600160d01b031692810192909252016101ea565b348015610602575f80fd5b5061027e610611366004612051565b610db4565b60606003805461062590612238565b80601f016020809104026020016040519081016040528092919081815260200182805461065190612238565b801561069c5780601f106106735761010080835404028352916020019161069c565b820191905f5260205f20905b81548152906001019060200180831161067f57829003601f168201915b5050505050905090565b5f336106b3818585610df1565b60019150505b92915050565b5f336106cc858285610e03565b6106d7858585610e7f565b506001949350505050565b5f81116107365760405162461bcd60e51b815260206004820152601d60248201527f416d6f756e74206d7573742062652067726561746572207468616e203000000060448201526064015b60405180910390fd5b335f9081526020819052604090205481111561078b5760405162461bcd60e51b8152602060048201526014602482015273496e73756666696369656e742062616c616e636560601b604482015260640161072d565b600c546001600160a01b03166107d65760405162461bcd60e51b815260206004820152601060248201526f151c99585cdd5c9e481b9bdd081cd95d60821b604482015260640161072d565b6107e03382610edc565b600c5460405163040b850f60e31b8152336004820152602481018390526001600160a01b039091169063205c2878906044015f604051808303815f87803b158015610829575f80fd5b505af115801561083b573d5f803e3d5ffd5b50506040518381523392507f884edad9ce6fa2440d8a54cc123490eb96d2768479d49ff9c7366125a9424364915060200160405180910390a250565b5f610880610f10565b905090565b5f6108af61089283611039565b6001600160a01b0385165f9081526009602052604090209061107d565b6001600160d01b03169392505050565b336108ca818361112d565b5050565b5f6106b98261119e565b6108e06111bf565b6108e95f6111ec565b565b5f6106b98261123d565b5f6060805f805f606061090661125a565b61090e611287565b604080515f80825260208201909252600f60f81b9b939a50919850469750309650945092509050565b5f61094c61094483611039565b600a9061107d565b6001600160d01b031692915050565b60606004805461062590612238565b6001600160a01b0381165f90815260096020526040812061094c906112b4565b5f336106b3818585610e7f565b834211156109bb57604051632341d78760e11b81526004810185905260240161072d565b604080517fe48329057bfd03d55e49b547132e39cffd9c1820ad7b9d4c5307691425d15adf60208201526001600160a01b0388169181019190915260608101869052608081018590525f90610a3490610a2c9060a001604051602081830303815290604052805190602001206112eb565b858585611317565b9050610a408187611343565b610a4a818861112d565b50505050505050565b5f3411610aa25760405162461bcd60e51b815260206004820152601d60248201527f416d6f756e74206d7573742062652067726561746572207468616e2030000000604482015260640161072d565b600c546001600160a01b0316610aed5760405162461bcd60e51b815260206004820152601060248201526f151c99585cdd5c9e481b9bdd081cd95d60821b604482015260640161072d565b610af73334611395565b600c5f9054906101000a90046001600160a01b03166001600160a01b031663d0e30db0346040518263ffffffff1660e01b81526004015f604051808303818588803b158015610b44575f80fd5b505af1158015610b56573d5f803e3d5ffd5b50506040513481523393507fe1fffcc4923d04b559f4d29a8bfc6cda04eb5b0d3c460751c2402c5c5cc9109c9250602001905060405180910390a2565b83421115610bb75760405163313c898160e11b81526004810185905260240161072d565b5f7f6e71edae12b1b97f4d1f60370fef10105fa2faae0126114a169c64845d6126c9888888610c028c6001600160a01b03165f90815260076020526040902080546001810190915590565b6040805160208101969096526001600160a01b0394851690860152929091166060840152608083015260a082015260c0810186905260e0016040516020818303038152906040528051906020012090505f610c5c826112eb565b90505f610c6b82878787611317565b9050896001600160a01b0316816001600160a01b031614610cb2576040516325c0072360e11b81526001600160a01b0380831660048301528b16602482015260440161072d565b610cbd8a8a8a610df1565b50505050505050505050565b610cd16111bf565b6001600160a01b038116610d275760405162461bcd60e51b815260206004820152601860248201527f496e76616c696420747265617375727920616464726573730000000000000000604482015260640161072d565b600c54604080516001600160a01b03928316815291831660208301527f4ab5be82436d353e61ca18726e984e561f5c1cc7c6d38b29d2553c790434705a910160405180910390a1600c80546001600160a01b0319166001600160a01b0392909216919091179055565b604080518082019091525f8082526020820152610dad83836113c9565b9392505050565b610dbc6111bf565b6001600160a01b038116610de557604051631e4fbdf760e01b81525f600482015260240161072d565b610dee816111ec565b50565b610dfe83838360016113fd565b505050565b6001600160a01b038381165f908152600160209081526040808320938616835292905220545f19811015610e795781811015610e6b57604051637dc7a0d960e11b81526001600160a01b0384166004820152602481018290526044810183905260640161072d565b610e7984848484035f6113fd565b50505050565b6001600160a01b038316610ea857604051634b637e8f60e11b81525f600482015260240161072d565b6001600160a01b038216610ed15760405163ec442f0560e01b81525f600482015260240161072d565b610dfe8383836114cf565b6001600160a01b038216610f0557604051634b637e8f60e11b81525f600482015260240161072d565b6108ca825f836114cf565b5f306001600160a01b037f000000000000000000000000000000000000000000000000000000000000000016148015610f6857507f000000000000000000000000000000000000000000000000000000000000000046145b15610f9257507f000000000000000000000000000000000000000000000000000000000000000090565b610880604080517f8b73c3c69bb8fe3d512ecc4cf759cc79239f7b179b0ffacaa9a75d522b39400f60208201527f0000000000000000000000000000000000000000000000000000000000000000918101919091527f000000000000000000000000000000000000000000000000000000000000000060608201524660808201523060a08201525f9060c00160405160208183030381529060405280519060200120905090565b5f4265ffffffffffff8116831061107457604051637669fc0f60e11b81526004810184905265ffffffffffff8216602482015260440161072d565b610dad836114da565b81545f90818160058111156110d9575f61109684611510565b6110a09085612284565b5f8881526020902090915081015465ffffffffffff90811690871610156110c9578091506110d7565b6110d4816001612297565b92505b505b5f6110e687878585611668565b905080156111205761110a876110fd600184612284565b5f91825260209091200190565b54600160301b90046001600160d01b0316611122565b5f5b979650505050505050565b6001600160a01b038281165f8181526008602052604080822080548686166001600160a01b0319821681179092559151919094169392849290917f3134e8a2e6d97e929a7e54011ea5485d7d196dd5f0ba4d4ef95803e8e3fc257f9190a4610dfe8183611199866116c7565b6116e4565b6001600160a01b0381165f908152600960205260408120546106b99061184d565b600b546001600160a01b031633146108e95760405163118cdaa760e01b815233600482015260240161072d565b600b80546001600160a01b038381166001600160a01b0319831681179093556040519116919082907f8be0079c531659141344cd1fd0a4f28419497f9722a3daafe3b4186f6b6457e0905f90a35050565b6001600160a01b0381165f908152600760205260408120546106b9565b60606108807f0000000000000000000000000000000000000000000000000000000000000000600561187d565b60606108807f0000000000000000000000000000000000000000000000000000000000000000600661187d565b80545f9080156112e3576112cd836110fd600184612284565b54600160301b90046001600160d01b0316610dad565b5f9392505050565b5f6106b96112f7610f10565b8360405161190160f01b8152600281019290925260228201526042902090565b5f805f8061132788888888611926565b92509250925061133782826119ee565b50909695505050505050565b6001600160a01b0382165f908152600760205260409020805460018101909155818114610dfe576040516301d4b62360e61b81526001600160a01b03841660048201526024810182905260440161072d565b6001600160a01b0382166113be5760405163ec442f0560e01b81525f600482015260240161072d565b6108ca5f83836114cf565b604080518082019091525f80825260208201526001600160a01b0383165f908152600960205260409020610dad9083611aa6565b6001600160a01b0384166114265760405163e602df0560e01b81525f600482015260240161072d565b6001600160a01b03831661144f57604051634a1406b160e11b81525f600482015260240161072d565b6001600160a01b038085165f9081526001602090815260408083209387168352929052208290558015610e7957826001600160a01b0316846001600160a01b03167f8c5be1e5ebec7d5bd14f71427d1e84f3dd0314c0f7b2291e5b200ac8c7c3b925846040516114c191815260200190565b60405180910390a350505050565b610dfe838383611b13565b5f65ffffffffffff82111561150c576040516306dfcc6560e41b8152603060048201526024810183905260440161072d565b5090565b5f6001821161151d575090565b816001600160801b82106115365760809190911c9060401b5b6801000000000000000082106115515760409190911c9060201b5b64010000000082106115685760209190911c9060101b5b62010000821061157d5760109190911c9060081b5b61010082106115915760089190911c9060041b5b601082106115a45760049190911c9060021b5b600482106115b05760011b5b600302600190811c908185816115c8576115c86122aa565b048201901c905060018185816115e0576115e06122aa565b048201901c905060018185816115f8576115f86122aa565b048201901c90506001818581611610576116106122aa565b048201901c90506001818581611628576116286122aa565b048201901c90506001818581611640576116406122aa565b048201901c905061165f818581611659576116596122aa565b04821190565b90039392505050565b5f5b818310156116bf575f61167d8484611b79565b5f8781526020902090915065ffffffffffff86169082015465ffffffffffff1611156116ab578092506116b9565b6116b6816001612297565b93505b5061166a565b509392505050565b6001600160a01b0381165f908152602081905260408120546106b9565b816001600160a01b0316836001600160a01b03161415801561170557505f81115b15610dfe576001600160a01b038316156117ac576001600160a01b0383165f908152600960205260408120819061174790611b9361174286611b9e565b611bd1565b6001600160d01b031691506001600160d01b03169150846001600160a01b03167fdec2bacdd2f05b59de34da9b523dff8be42e5e38e818c82fdb0bae774387a72483836040516117a1929190918252602082015260400190565b60405180910390a250505b6001600160a01b03821615610dfe576001600160a01b0382165f90815260096020526040812081906117e490611c0261174286611b9e565b6001600160d01b031691506001600160d01b03169150836001600160a01b03167fdec2bacdd2f05b59de34da9b523dff8be42e5e38e818c82fdb0bae774387a724838360405161183e929190918252602082015260400190565b60405180910390a25050505050565b5f63ffffffff82111561150c576040516306dfcc6560e41b8152602060048201526024810183905260440161072d565b606060ff83146118975761189083611c0d565b90506106b9565b8180546118a390612238565b80601f01602080910402602001604051908101604052809291908181526020018280546118cf90612238565b801561191a5780601f106118f15761010080835404028352916020019161191a565b820191905f5260205f20905b8154815290600101906020018083116118fd57829003601f168201915b505050505090506106b9565b5f80807f7fffffffffffffffffffffffffffffff5d576e7357a4501ddfe92f46681b20a084111561195f57505f915060039050826119e4565b604080515f808252602082018084528a905260ff891692820192909252606081018790526080810186905260019060a0016020604051602081039080840390855afa1580156119b0573d5f803e3d5ffd5b5050604051601f1901519150506001600160a01b0381166119db57505f9250600191508290506119e4565b92505f91508190505b9450945094915050565b5f826003811115611a0157611a016122be565b03611a0a575050565b6001826003811115611a1e57611a1e6122be565b03611a3c5760405163f645eedf60e01b815260040160405180910390fd5b6002826003811115611a5057611a506122be565b03611a715760405163fce698f760e01b81526004810182905260240161072d565b6003826003811115611a8557611a856122be565b036108ca576040516335e2f38360e21b81526004810182905260240161072d565b604080518082019091525f8082526020820152825f018263ffffffff1681548110611ad357611ad36122d2565b5f9182526020918290206040805180820190915291015465ffffffffffff81168252600160301b90046001600160d01b0316918101919091529392505050565b611b1e838383611c4a565b6001600160a01b038316611b6e575f611b3660025490565b90506001600160d01b0380821115611b6b57604051630e58ae9360e11b8152600481018390526024810182905260440161072d565b50505b610dfe838383611d70565b5f611b8760028484186122e6565b610dad90848416612297565b5f610dad8284612305565b5f6001600160d01b0382111561150c576040516306dfcc6560e41b815260d060048201526024810183905260440161072d565b5f80611bf542611bed611be3886112b4565b868863ffffffff16565b879190611de5565b915091505b935093915050565b5f610dad828461232c565b60605f611c1983611df2565b6040805160208082528183019092529192505f91906020820181803683375050509182525060208101929092525090565b6001600160a01b038316611c74578060025f828254611c699190612297565b90915550611ce49050565b6001600160a01b0383165f9081526020819052604090205481811015611cc65760405163391434e360e21b81526001600160a01b0385166004820152602481018290526044810183905260640161072d565b6001600160a01b0384165f9081526020819052604090209082900390555b6001600160a01b038216611d0057600280548290039055611d1e565b6001600160a01b0382165f9081526020819052604090208054820190555b816001600160a01b0316836001600160a01b03167fddf252ad1be2c89b69c2b068fc378daa952ba7f163c4a11628f55a4df523b3ef83604051611d6391815260200190565b60405180910390a3505050565b6001600160a01b038316611d9257611d8f600a611c0261174284611b9e565b50505b6001600160a01b038216611db457611db1600a611b9361174284611b9e565b50505b6001600160a01b038381165f90815260086020526040808220548584168352912054610dfe929182169116836116e4565b5f80611bf5858585611e19565b5f60ff8216601f8111156106b957604051632cd44ac360e21b815260040160405180910390fd5b82545f9081908015611f0f575f611e35876110fd600185612284565b805490915065ffffffffffff80821691600160301b90046001600160d01b0316908816821115611e7857604051632520601d60e01b815260040160405180910390fd5b8765ffffffffffff168265ffffffffffff1603611eb157825465ffffffffffff16600160301b6001600160d01b03891602178355611f01565b6040805180820190915265ffffffffffff808a1682526001600160d01b03808a1660208085019182528d54600181018f555f8f81529190912094519151909216600160301b029216919091179101555b9450859350611bfa92505050565b50506040805180820190915265ffffffffffff80851682526001600160d01b0380851660208085019182528854600181018a555f8a815291822095519251909316600160301b029190931617920191909155905081611bfa565b5f81518084525f5b81811015611f8d57602081850181015186830182015201611f71565b505f602082860101526020601f19601f83011685010191505092915050565b602081525f610dad6020830184611f69565b80356001600160a01b0381168114611fd4575f80fd5b919050565b5f8060408385031215611fea575f80fd5b611ff383611fbe565b946020939093013593505050565b5f805f60608486031215612013575f80fd5b61201c84611fbe565b925061202a60208501611fbe565b9150604084013590509250925092565b5f6020828403121561204a575f80fd5b5035919050565b5f60208284031215612061575f80fd5b610dad82611fbe565b60ff60f81b881681525f602060e0602084015261208a60e084018a611f69565b838103604085015261209c818a611f69565b606085018990526001600160a01b038816608086015260a0850187905284810360c0860152855180825260208088019350909101905f5b818110156120ef578351835292840192918401916001016120d3565b50909c9b505050505050505050505050565b803560ff81168114611fd4575f80fd5b5f805f805f8060c08789031215612126575f80fd5b61212f87611fbe565b9550602087013594506040870135935061214b60608801612101565b92506080870135915060a087013590509295509295509295565b5f805f805f805f60e0888a03121561217b575f80fd5b61218488611fbe565b965061219260208901611fbe565b955060408801359450606088013593506121ae60808901612101565b925060a0880135915060c0880135905092959891949750929550565b5f80604083850312156121db575f80fd5b6121e483611fbe565b91506121f260208401611fbe565b90509250929050565b5f806040838503121561220c575f80fd5b61221583611fbe565b9150602083013563ffffffff8116811461222d575f80fd5b809150509250929050565b600181811c9082168061224c57607f821691505b60208210810361226a57634e487b7160e01b5f52602260045260245ffd5b50919050565b634e487b7160e01b5f52601160045260245ffd5b818103818111156106b9576106b9612270565b808201808211156106b9576106b9612270565b634e487b7160e01b5f52601260045260245ffd5b634e487b7160e01b5f52602160045260245ffd5b634e487b7160e01b5f52603260045260245ffd5b5f8261230057634e487b7160e01b5f52601260045260245ffd5b500490565b6001600160d01b0382811682821603908082111561232557612325612270565b5092915050565b6001600160d01b038181168382160190808211156123255761232561227056fea26469706673582212207f6d83c5f5f9989abe76e0db4a8997c6e60c6f71c586c2d689025c3ea9db3b8c64736f6c63430008180033",
  "linkReferences": {},
  "deployedLinkReferences": {}
}