{
  "_format": "hh-sol-artifact-1",
  "contractName": "Treasury",
  "sourceName": "contracts/Treasury.sol",
  "abi": [
    {
      "inputs": [],
      "stateMutability": "nonpayable",
      "type": "constructor"
    },
    {
      "inputs": [],
      "name": "AccessControlBadConfirmation",
      "type": "error"
    },
    {
      "inputs": [
        {
          "internalType": "address",
          "name": "account",
          "type": "address"
        },
        {
          "internalType": "bytes32",
          "name": "neededRole",
          "type": "bytes32"
        }
      ],
      "name": "AccessControlUnauthorizedAccount",
      "type": "error"
    },
    {
      "anonymous": false,
      "inputs": [
        {
          "indexed": false,
          "internalType": "enum Treasury.FundCategory",
          "name": "category",
          "type": "uint8"
        },
        {
          "indexed": false,
          "internalType": "uint256",
          "name": "newBudget",
          "type": "uint256"
        },
        {
          "indexed": false,
          "internalType": "uint256",
          "name": "newTxLimit",
          "type": "uint256"
        }
      ],
      "name": "BudgetsUpdated",
      "type": "event"
    },
    {
      "anonymous": false,
      "inputs": [
        {
          "indexed": true,
          "internalType": "address",
          "name": "sender",
          "type": "address"
        },
        {
          "indexed": false,
          "internalType": "uint256",
          "name": "amount",
          "type": "uint256"
        }
      ],
      "name": "FundsDeposited",
      "type": "event"
    },
    {
      "anonymous": false,
      "inputs": [
        {
          "indexed": true,
          "internalType": "address",
          "name": "recipient",
          "type": "address"
        },
        {
          "indexed": false,
          "internalType": "uint256",
          "name": "amount",
          "type": "uint256"
        },
        {
          "indexed": false,
          "internalType": "enum Treasury.FundCategory",
          "name": "category",
          "type": "uint8"
        }
      ],
      "name": "FundsReleased",
      "type": "event"
    },
    {
      "anonymous": false,
      "inputs": [
        {
          "indexed": true,
          "internalType": "address",
          "name": "recipient",
          "type": "address"
        },
        {
          "indexed": false,
          "internalType": "uint256",
          "name": "amount",
          "type": "uint256"
        }
      ],
      "name": "FundsWithdrawn",
      "type": "event"
    },
    {
      "anonymous": false,
      "inputs": [
        {
          "indexed": true,
          "internalType": "bytes32",
          "name": "role",
          "type": "bytes32"
        },
        {
          "indexed": true,
          "internalType": "bytes32",
          "name": "previousAdminRole",
          "type": "bytes32"
        },
        {
          "indexed": true,
          "internalType": "bytes32",
          "name": "newAdminRole",
          "type": "bytes32"
        }
      ],
      "name": "RoleAdminChanged",
      "type": "event"
    },
    {
      "anonymous": false,
      "inputs": [
        {
          "indexed": true,
          "internalType": "bytes32",
          "name": "role",
          "type": "bytes32"
        },
        {
          "indexed": true,
          "internalType": "address",
          "name": "account",
          "type": "address"
        },
        {
          "indexed": true,
          "internalType": "address",
          "name": "sender",
          "type": "address"
        }
      ],
      "name": "RoleGranted",
      "type": "event"
    },
    {
      "anonymous": false,
      "inputs": [
        {
          "indexed": true,
          "internalType": "bytes32",
          "name": "role",
          "type": "bytes32"
        },
        {
          "indexed": true,
          "internalType": "address",
          "name": "account",
          "type": "address"
        },
        {
          "indexed": true,
          "internalType": "address",
          "name": "sender",
          "type": "address"
        }
      ],
      "name": "RoleRevoked",
      "type": "event"
    },
    {
      "inputs": [],
      "name": "ADMIN_ROLE",
      "outputs": [
        {
          "internalType": "bytes32",
          "name": "",
          "type": "bytes32"
        }
      ],
      "stateMutability": "view",
      "type": "function"
    },
    {
      "inputs": [],
      "name": "DEFAULT_ADMIN_ROLE",
      "outputs": [
        {
          "internalType": "bytes32",
          "name": "",
          "type": "bytes32"
        }
      ],
      "stateMutability": "view",
      "type": "function"
    },
    {
      "inputs": [],
      "name": "EXECUTOR_ROLE",
      "outputs": [
        {
          "internalType": "bytes32",
          "name": "",
          "type": "bytes32"
        }
      ],
      "stateMutability": "view",
      "type": "function"
    },
    {
      "inputs": [],
      "name": "WITHDRAWER_ROLE",
      "outputs": [
        {
          "internalType": "bytes32",
          "name": "",
          "type": "bytes32"
        }
      ],
      "stateMutability": "view",
      "type": "function"
    },
    {
      "inputs": [
        {
          "internalType": "enum Treasury.FundCategory",
          "name": "",
          "type": "uint8"
        }
      ],
      "name": "categoryBudgets",
      "outputs": [
        {
          "internalType": "uint256",
          "name": "",
          "type": "uint256"
        }
      ],
      "stateMutability": "view",
      "type": "function"
    },
    {
      "inputs": [
        {
          "internalType": "enum Treasury.FundCategory",
          "name": "",
          "type": "uint8"
        }
      ],
      "name": "categoryTxLimits",
      "outputs": [
        {
          "internalType": "uint256",
          "name": "",
          "type": "uint256"
        }
      ],
      "stateMutability": "view",
      "type": "function"
    },
    {
      "inputs": [],
      "name": "deposit",
      "outputs": [],
      "stateMutability": "payable",
      "type": "function"
    },
    {
      "inputs": [
        {
          "internalType": "enum Treasury.FundCategory",
          "name": "category",
          "type": "uint8"
        }
      ],
      "name": "getCategoryBalance",
      "outputs": [
        {
          "internalType": "uint256",
          "name": "",
          "type": "uint256"
        }
      ],
      "stateMutability": "view",
      "type": "function"
    },
    {
      "inputs": [
        {
          "internalType": "bytes32",
          "name": "role",
          "type": "bytes32"
        }
      ],
      "name": "getRoleAdmin",
      "outputs": [
        {
          "internalType": "bytes32",
          "name": "",
          "type": "bytes32"
        }
      ],
      "stateMutability": "view",
      "type": "function"
    },
    {
      "inputs": [
        {
          "internalType": "bytes32",
          "name": "role",
          "type": "bytes32"
        },
        {
          "internalType": "address",
          "name": "account",
          "type": "address"
        }
      ],
      "name": "grantRole",
      "outputs": [],
      "stateMutability": "nonpayable",
      "type": "function"
    },
    {
      "inputs": [
        {
          "internalType": "bytes32",
          "name": "role",
          "type": "bytes32"
        },
        {
          "internalType": "address",
          "name": "account",
          "type": "address"
        }
      ],
      "name": "hasRole",
      "outputs": [
        {
          "internalType": "bool",
          "name": "",
          "type": "bool"
        }
      ],
      "stateMutability": "view",
      "type": "function"
    },
    {
      "inputs": [
        {
          "internalType": "address",
          "name": "recipient",
          "type": "address"
        },
        {
          "internalType": "uint256",
          "name": "amount",
          "type": "uint256"
        },
        {
          "internalType": "enum Treasury.FundCategory",
          "name": "category",
          "type": "uint8"
        }
      ],
      "name": "releaseFunds",
      "outputs": [],
      "stateMutability": "nonpayable",
      "type": "function"
    },
    {
      "inputs": [
        {
          "internalType": "bytes32",
          "name": "role",
          "type": "bytes32"
        },
        {
          "internalType": "address",
          "name": "callerConfirmation",
          "type": "address"
        }
      ],
      "name": "renounceRole",
      "outputs": [],
      "stateMutability": "nonpayable",
      "type": "function"
    },
    {
      "inputs": [
        {
          "internalType": "bytes32",
          "name": "role",
          "type": "bytes32"
        },
        {
          "internalType": "address",
          "name": "account",
          "type": "address"
        }
      ],
      "name": "revokeRole",
      "outputs": [],
      "stateMutability": "nonpayable",
      "type": "function"
    },
    {
      "inputs": [
        {
          "internalType": "bytes4",
          "name": "interfaceId",
          "type": "bytes4"
        }
      ],
      "name": "supportsInterface",
      "outputs": [
        {
          "internalType": "bool",
          "name": "",
          "type": "bool"
        }
      ],
      "stateMutability": "view",
      "type": "function"
    },
    {
      "inputs": [
        {
          "internalType": "enum Treasury.FundCategory",
          "name": "",
          "type": "uint8"
        }
      ],
      "name": "totalSpent",
      "outputs": [
        {
          "internalType": "uint256",
          "name": "",
          "type": "uint256"
        }
      ],
      "stateMutability": "view",
      "type": "function"
    },
    {
      "inputs": [
        {
          "internalType": "enum Treasury.FundCategory",
          "name": "category",
          "type": "uint8"
        },
        {
          "internalType": "uint256",
          "name": "newBudget",
          "type": "uint256"
        },
        {
          "internalType": "uint256",
          "name": "newTxLimit",
          "type": "uint256"
        }
      ],
      "name": "updateCategoryConfig",
      "outputs": [],
      "stateMutability": "nonpayable",
      "type": "function"
    },
    {
      "inputs": [
        {
          "internalType": "address",
          "name": "recipient",
          "type": "address"
        },
        {
          "internalType": "uint256",
          "name": "amount",
          "type": "uint256"
        }
      ],
      "name": "withdrawTo",
      "outputs": [],
      "stateMutability": "nonpayable",
      "type": "function"
    },
    {
      "stateMutability": "payable",
      "type": "receive"
    }
  ],
  "bytecode": "0x608060405234801561000f575f80fd5b5061001a5f33610156565b506100457fa49807205ce4d355092ef5a8a18f56e8913cf4a201fbe287825b095693c2177533610156565b50682086ac3510526000007fa6eef7e35abe7026729641147f7915573c7e97b47efa546f5f6e3230263bcb49819055681043561a88293000007fcc69885fda6bcc1a4ace058b4a62bf5e179ea78fd58a1ccd71c22cc9b688792f5568056bc75e2d631000007fd9d16d34ffb15ba3a3d852f0d403e2ce1d691fb54de27ac87cd2f993f3ec330f55600260208190527fac33ff75c19e70fe83507db0d683fd3465c996598dc972688b7ace676c89077b919091556802b5e3af16b18800007fe90b7bceb6e7df5418fb78d8ee546e97c83a08bbccc01a0644d599ccd2a7c2e0555f52674563918244f400007f679795a0195a1b76cdebb7c51d74e058aee92919b8c3389af86ef24535e8a28c556101ff565b5f828152602081815260408083206001600160a01b038516845290915281205460ff166101f6575f838152602081815260408083206001600160a01b03861684529091529020805460ff191660011790556101ae3390565b6001600160a01b0316826001600160a01b0316847f2f8788117e7eff1d82e926ec794901d17c78024a50270940304540a733656f0d60405160405180910390a45060016101f9565b505f5b92915050565b610db98061020c5f395ff3fe608060405260043610610108575f3560e01c806375b238fc1161009257806391d148541161006257806391d148541461036357806394d77ad814610382578063a217fddf146103ad578063d0e30db0146103c0578063d547741f146103c8575f80fd5b806375b238fc146102b357806380ae4011146102e657806382777dc21461030557806385f438c114610330575f80fd5b8063205c2878116100d8578063205c287814610209578063248a9ca3146102285780632a6f93cb146102565780632f2ff15d1461027557806336568abe14610294575f80fd5b806301ffc9a71461014857806307bd02651461017c57806312bcfe99146101bd5780631d6f3f93146101de575f80fd5b366101445760405134815233907f543ba50a5eec5e6178218e364b1d0f396157b3c8fa278522c2cb7fd99407d4749060200160405180910390a2005b5f80fd5b348015610153575f80fd5b50610167610162366004610ba0565b6103e7565b60405190151581526020015b60405180910390f35b348015610187575f80fd5b506101af7fd8aa0f3194971a2a116679f7c2090f6939c8d4e01a2a8d7e41d55e5351469e6381565b604051908152602001610173565b3480156101c8575f80fd5b506101dc6101d7366004610be1565b61041d565b005b3480156101e9575f80fd5b506101af6101f8366004610c11565b60026020525f908152604090205481565b348015610214575f80fd5b506101dc610223366004610c40565b6104f8565b348015610233575f80fd5b506101af610242366004610c68565b5f9081526020819052604090206001015490565b348015610261575f80fd5b506101af610270366004610c11565b6105f3565b348015610280575f80fd5b506101dc61028f366004610c7f565b6106da565b34801561029f575f80fd5b506101dc6102ae366004610c7f565b610704565b3480156102be575f80fd5b506101af7fa49807205ce4d355092ef5a8a18f56e8913cf4a201fbe287825b095693c2177581565b3480156102f1575f80fd5b506101dc610300366004610ca9565b61073c565b348015610310575f80fd5b506101af61031f366004610c11565b60016020525f908152604090205481565b34801561033b575f80fd5b506101af7f10dac8c06a04bec0b551627dad28bc00d6516b0caacd1c7b345fcdb5211334e481565b34801561036e575f80fd5b5061016761037d366004610c7f565b6109db565b34801561038d575f80fd5b506101af61039c366004610c11565b60036020525f908152604090205481565b3480156103b8575f80fd5b506101af5f81565b6101dc610a03565b3480156103d3575f80fd5b506101dc6103e2366004610c7f565b610a3a565b5f6001600160e01b03198216637965db0b60e01b148061041757506301ffc9a760e01b6001600160e01b03198316145b92915050565b7fa49807205ce4d355092ef5a8a18f56e8913cf4a201fbe287825b095693c2177561044781610a5e565b8260015f86600281111561045d5761045d610ce2565b600281111561046e5761046e610ce2565b81526020019081526020015f20819055508160025f86600281111561049557610495610ce2565b60028111156104a6576104a6610ce2565b81526020019081526020015f20819055507f5c069331e3f45f3993de655f8d05753c59c886de8ff32f21cd4c25998014f7c38484846040516104ea93929190610d16565b60405180910390a150505050565b7f10dac8c06a04bec0b551627dad28bc00d6516b0caacd1c7b345fcdb5211334e461052281610a5e565b478211156105775760405162461bcd60e51b815260206004820152601d60248201527f496e73756666696369656e742054726561737572792042616c616e636500000060448201526064015b60405180910390fd5b6040516001600160a01b0384169083156108fc029084905f818181858888f193505050501580156105aa573d5f803e3d5ffd5b50826001600160a01b03167feaff4b37086828766ad3268786972c0cd24259d4c87a80f9d3963a3c3d999b0d836040516105e691815260200190565b60405180910390a2505050565b5f60015f83600281111561060957610609610ce2565b600281111561061a5761061a610ce2565b81526020019081526020015f205460035f84600281111561063d5761063d610ce2565b600281111561064e5761064e610ce2565b81526020019081526020015f20541061066857505f919050565b60035f83600281111561067d5761067d610ce2565b600281111561068e5761068e610ce2565b81526020019081526020015f205460015f8460028111156106b1576106b1610ce2565b60028111156106c2576106c2610ce2565b81526020019081526020015f20546104179190610d49565b5f828152602081905260409020600101546106f481610a5e565b6106fe8383610a6b565b50505050565b6001600160a01b038116331461072d5760405163334bd91960e11b815260040160405180910390fd5b6107378282610afa565b505050565b7fd8aa0f3194971a2a116679f7c2090f6939c8d4e01a2a8d7e41d55e5351469e6361076681610a5e565b478311156107b65760405162461bcd60e51b815260206004820152601d60248201527f496e73756666696369656e742054726561737572792042616c616e6365000000604482015260640161056e565b60025f8360028111156107cb576107cb610ce2565b60028111156107dc576107dc610ce2565b81526020019081526020015f20548311156108545760405162461bcd60e51b815260206004820152603260248201527f416d6f756e742065786365656473207472616e73616374696f6e206c696d697460448201527120666f7220746869732063617465676f727960701b606482015260840161056e565b60015f83600281111561086957610869610ce2565b600281111561087a5761087a610ce2565b81526020019081526020015f20548360035f85600281111561089e5761089e610ce2565b60028111156108af576108af610ce2565b81526020019081526020015f20546108c79190610d5c565b11156109155760405162461bcd60e51b815260206004820152601860248201527f43617465676f7279206275646765742065786365656465640000000000000000604482015260640161056e565b6040516001600160a01b0385169084156108fc029085905f818181858888f19350505050158015610948573d5f803e3d5ffd5b508260035f84600281111561095f5761095f610ce2565b600281111561097057610970610ce2565b81526020019081526020015f205f82825461098b9190610d5c565b92505081905550836001600160a01b03167f5d2f5d506dae29a20dfc21ee5bbcd10c547879d4d1d138d0d1b6219068c926c484846040516109cd929190610d6f565b60405180910390a250505050565b5f918252602082815260408084206001600160a01b0393909316845291905290205460ff1690565b60405134815233907f543ba50a5eec5e6178218e364b1d0f396157b3c8fa278522c2cb7fd99407d4749060200160405180910390a2565b5f82815260208190526040902060010154610a5481610a5e565b6106fe8383610afa565b610a688133610b63565b50565b5f610a7683836109db565b610af3575f838152602081815260408083206001600160a01b03861684529091529020805460ff19166001179055610aab3390565b6001600160a01b0316826001600160a01b0316847f2f8788117e7eff1d82e926ec794901d17c78024a50270940304540a733656f0d60405160405180910390a4506001610417565b505f610417565b5f610b0583836109db565b15610af3575f838152602081815260408083206001600160a01b0386168085529252808320805460ff1916905551339286917ff6391f5c32d9c69d2a47ea670b442974b53935d1edc7fd64eb21e047a839171b9190a4506001610417565b610b6d82826109db565b610b9c5760405163e2517d3f60e01b81526001600160a01b03821660048201526024810183905260440161056e565b5050565b5f60208284031215610bb0575f80fd5b81356001600160e01b031981168114610bc7575f80fd5b9392505050565b803560038110610bdc575f80fd5b919050565b5f805f60608486031215610bf3575f80fd5b610bfc84610bce565b95602085013595506040909401359392505050565b5f60208284031215610c21575f80fd5b610bc782610bce565b80356001600160a01b0381168114610bdc575f80fd5b5f8060408385031215610c51575f80fd5b610c5a83610c2a565b946020939093013593505050565b5f60208284031215610c78575f80fd5b5035919050565b5f8060408385031215610c90575f80fd5b82359150610ca060208401610c2a565b90509250929050565b5f805f60608486031215610cbb575f80fd5b610cc484610c2a565b925060208401359150610cd960408501610bce565b90509250925092565b634e487b7160e01b5f52602160045260245ffd5b60038110610d1257634e487b7160e01b5f52602160045260245ffd5b9052565b60608101610d248286610cf6565b602082019390935260400152919050565b634e487b7160e01b5f52601160045260245ffd5b8181038181111561041757610417610d35565b8082018082111561041757610417610d35565b82815260408101610bc76020830184610cf656fea26469706673582212206e2aeebb551f0f90fd868b08dfca964b5abbdcd49651e58d2d2bdafb3cf8a2e864736f6c63430008180033",
  "linkReferences": {},
  "deployedLinkReferences": {}
}